:020000040800F2
:1040000000000120C5A4000815A5000815A500089A
:1040100015A5000815A5000815A50008000000005A
:10402000000000000000000000000000419D0008AA
:1040300015A5000800000000919F0008F99F0008E6
:104040000000000015A5000815A5000815A500082A
:1040500015A5000815A500080D5F00082D5F0008D4
:104060004D5F00086D5F00088D5F0008D55900089E
:10407000015A00082D5A0008595A0008855A0008AC
:10408000B15A0008DD5A000815A50008000000001C
:10409000000000000000000000000000AD5F00080C
:1040A0003D750008C1730008A9740008D1750008A7
:1040B000FD750008A57600083977000815A50008E9
:1040C00015A5000815A5000815A500083D6B0008FA
:1040D0004B6B000815A5000815A50008000000009E
:1040E0006160000815A5000815A500080000000083
:1040F000000000000000000000000000095B000854
:104100000000000015A50008CD770008596B0008D5
:10411000000000000000000000000000000000009F
:10412000355B0008615B00088D5B0008B95B000827
:10413000E55B000800000000000000000000000037
:1041400000000000000000000000000015A50008AD
:10415000115C00083D5C0008695C000815A50008BA
:1041600015A5000815A500080000000000000000CB
:10417000000000000000000000000000000000003F
:10418000000000000000000000000000000000002F
:0441900015A5000869
:1041A00010B5054C237833B9044B13B10448AFF371
:1041B00000800123237010BDAC000020000000002F
:1041C0008CA5000808B5034B1BB103490348AFF3A6
:1041D000008008BD00000000B00000208CA5000891
:1041E00081F0004102E000BF83F0004330B54FEAA8
:1041F00041044FEA430594EA050F08BF90EA020F15
:104200001FBF54EA000C55EA020C7FEA645C7FEAA7
:10421000655C00F0E2804FEA5454D4EB5555B8BFCA
:104220006D420CDD2C4480EA020281EA030382EA3B
:10423000000083EA010180EA020281EA0303362DCD
:1042400088BF30BD11F0004F4FEA01314FF4801CA0
:104250004CEA113102D0404261EB410113F0004FB2
:104260004FEA03334CEA133302D0524263EB430369
:1042700094EA050F00F0A780A4F10104D5F1200E07
:104280000DDB02FA0EFC22FA05F2801841F1000162
:1042900003FA0EF2801843FA05F359410EE0A5F136
:1042A00020050EF1200E012A03FA0EFC28BF4CF067
:1042B000020C43FA05F3C01851EBE37101F000451D
:1042C00007D54FF0000EDCF1000C7EEB00006EEB2A
:1042D0000101B1F5801F1BD3B1F5001F0CD34908B4
:1042E0005FEA30004FEA3C0C04F101044FEA44520B
:1042F00012F5800F80F09A80BCF1004F08BF5FEA92
:10430000500C50F1000041EB045141EA050130BD71
:104310005FEA4C0C404141EB0101013C28BFB1F583
:10432000801FE9D291F0000F04BF01460020B1FACE
:1043300081F308BF2033A3F10B03B3F120020CDAA1
:104340000C3208DD02F1140CC2F10C0201FA0CF07F
:1043500021FA02F10CE002F11402D8BFC2F1200CE4
:1043600001FA02F120FA0CFCDCBF41EA0C0190409A
:10437000E41AA2BF01EB0451294330BD6FEA0404E3
:104380001F3C1CDA0C340EDC04F11404C4F12002CE
:1043900020FA04F001FA02F340EA030021FA04F3E0
:1043A00045EA030130BDC4F10C04C4F1200220FA37
:1043B00002F001FA04F340EA0300294630BD21FA75
:1043C00004F0294630BD94F0000F83F4801306BF3B
:1043D00081F480110134013D4EE77FEA645C18BF2F
:1043E0007FEA655C29D094EA050F08BF90EA020FC6
:1043F00005D054EA000C04BF1946104630BD91EABE
:10440000030F1EBF0021002030BD5FEA545C05D1C0
:104410004000494128BF41F0004130BD14F58004FF
:104420003CBF01F5801130BD01F0004545F0FE4173
:1044300041F470014FF0000030BD7FEA645C1ABFA8
:10444000194610467FEA655C1CBF0B46024650EADF
:10445000013406BF52EA033591EA030F41F400210B
:1044600030BD00BF90F0000F04BF0021704730B591
:104470004FF4806404F132044FF000054FF0000166
:1044800050E700BF90F0000F04BF0021704730B527
:104490004FF4806404F1320410F0004548BF4042FC
:1044A0004FF000013EE700BF42004FEAE2014FEA51
:1044B00031014FEA02701FBF12F07F4393F07F4F2C
:1044C00081F06051704732F07F4208BF704793F02F
:1044D0007F4F04BF41F40021704730B54FF4607442
:1044E00001F0004521F000411CE700BF50EA010245
:1044F00008BF704730B54FF000050AE050EA0102EE
:1045000008BF704730B511F0004502D5404261EB5D
:1045100041014FF4806404F132045FEA915C3FF49E
:10452000D8AE4FF003025FEADC0C18BF03325FEA3B
:10453000DC0C18BF033202EBDC02C2F1200300FAEC
:1045400003FC20FA02F001FA03FE40EA0E0021FA11
:1045500002F11444BDE600BF70B54FF0FF0C4CF4FF
:10456000E06C1CEA11541DBF1CEA135594EA0C0FB1
:1045700095EA0C0F00F0DEF82C4481EA030621EAEC
:104580004C5123EA4C5350EA013518BF52EA033527
:1045900041F4801143F4801338D0A0FB02CE4FF0D9
:1045A0000005E1FB02E506F00042E0FB03E54FF009
:1045B0000006E1FB03569CF0000F18BF4EF0010E01
:1045C000A4F1FF04B6F5007F64F5407404D25FEAFD
:1045D0004E0E6D4146EB060642EAC62141EA5551B0
:1045E0004FEAC52040EA5E504FEACE2EB4F1FD0CF2
:1045F00088BFBCF5E06F1ED8BEF1004F08BF5FEA70
:10460000500E50F1000041EB045170BD06F0004621
:1046100046EA010140EA020081EA0301B4EB5C04CE
:10462000C2BFD4EB0C0541EA045170BD41F48011C6
:104630004FF0000E013C00F3AB8014F1360FDEBFEB
:10464000002001F0004170BDC4F10004203C35DAC7
:104650000C341BDC04F11404C4F1200500FA05F34A
:1046600020FA04F001FA05F240EA020001F00042EB
:1046700021F0004110EBD37021FA04F642EB060161
:104680005EEA430E08BF20EAD37070BDC4F10C048B
:10469000C4F1200500FA04F320FA05F001FA04F24F
:1046A00040EA020001F0004110EBD37041F100013B
:1046B0005EEA430E08BF20EAD37070BDC4F1200546
:1046C00000FA05F24EEA020E20FA04F301FA05F2AE
:1046D00043EA020321FA04F001F0004121FA04F256
:1046E00020EA020000EBD3705EEA430E08BF20EA26
:1046F000D37070BD94F0000F0FD101F00046400060
:1047000041EB010111F4801F08BF013CF7D041EAE1
:10471000060195F0000F18BF704703F000465200E5
:1047200043EB030313F4801F08BF013DF7D043EAB6
:104730000603704794EA0C0F0CEA135518BF95EA6C
:104740000C0F0CD050EA410618BF52EA4306D1D1F3
:1047500081EA030101F000414FF0000070BD50EA12
:10476000410606BF1046194652EA430619D094EA9C
:104770000C0F02D150EA013613D195EA0C0F05D186
:1047800052EA03361CBF104619460AD181EA0301DA
:1047900001F0004141F0FE4141F470014FF0000092
:1047A00070BD41F0FE4141F4780170BD70B54FF02D
:1047B000FF0C4CF4E06C1CEA11541DBF1CEA1355AD
:1047C00094EA0C0F95EA0C0F00F0A7F8A4EB05048F
:1047D00081EA030E52EA03354FEA013100F0888086
:1047E0004FEA03334FF0805545EA131343EA12634F
:1047F0004FEA022245EA111545EA10654FEA002604
:104800000EF000419D4208BF964244F1FD0404F5BC
:10481000407402D25B084FEA3202B61A65EB030518
:104820005B084FEA32024FF480104FF4002CB6EBD5
:10483000020E75EB030E22BFB61A754640EA0C0055
:104840005B084FEA3202B6EB020E75EB030E22BF95
:10485000B61A754640EA5C005B084FEA3202B6EBD6
:10486000020E75EB030E22BFB61A754640EA9C0095
:104870005B084FEA3202B6EB020E75EB030E22BF65
:10488000B61A754640EADC0055EA060E18D04FEA23
:10489000051545EA16754FEA06164FEAC30343EAC3
:1048A00052734FEAC2025FEA1C1CC0D111F4801F90
:1048B0000BD141EA00014FF000004FF0004CB6E789
:1048C00011F4801F04BF01430020B4F1FD0C88BF28
:1048D000BCF5E06F3FF6AFAEB5EB030C04BFB6EB33
:1048E000020C5FEA500C50F1000041EB045170BD26
:1048F0000EF0004E4EEA113114EB5C04C2BFD4EB53
:104900000C0541EA045170BD41F480114FF0000ED6
:10491000013C90E645EA060E8DE60CEA135594EA52
:104920000C0F08BF95EA0C0F3FF43BAF94EA0C0F55
:104930000AD150EA01347FF434AF95EA0C0F7FF4CA
:1049400025AF104619462CE795EA0C0F06D152EA1E
:1049500003353FF4FDAE1046194622E750EA410602
:1049600018BF52EA43067FF4C5AE50EA41047FF413
:104970000DAF52EA43057FF4EBAE12E74A0011D2C5
:1049800012F5001211D20DD56FF47873B3EB6252A9
:104990000ED44FEAC12343F0004343EA505323FAB5
:1049A00002F070474FF00000704750EA013002D12A
:1049B0004FF0FF3070474FF00000704790B585B062
:1049C00002AF0023FB7100F0AFFA0346224A934284
:1049D00015D10123FB71214B1868F91D0123002219
:1049E00003F0E4F91E4B1C6804F0E2F802460023D1
:1049F000009300230621204604F05EFE27E000F02D
:104A000093FA0346174A934209D10223FB71134BD1
:104A10001868F91D0123002203F0C8F917E000F01F
:104A200083FA0346104A934209D10023FB710B4BD2
:104A30001868F91D0123002203F0B8F907E000F01F
:104A400073FA0346094A934201D101F001FF00BF06
:104A50000C37BD4690BD00BF27D8D922D800002012
:104A6000D40000200FF0D92237C8D9229F60D92264
:104A700080B584B002AF7860314800F0A7FB062112
:104A8000062001F0DFFD2F492F4800F001FA2F48E2
:104A900000F0ECFC2E4800F03DFB2E4B01930A2366
:104AA0000093002380222C492C4803F08DFD2C4BD1
:104AB000019309230093002380222A492A4803F006
:104AC00083FD2A4B00930023012244F620612848ED
:104AD00004F096FD0346274A1360002201210120BD
:104AE00002F0DAFF0346244A1360012003F047F87E
:104AF0000346224A1360012003F041F80346204A8E
:104B0000136003220021012002F0C6FF03461D4A64
:104B100013601A4B186800230022002103F048F8A4
:104B2000174B186800230022002103F041F8164BB0
:104B30001B68184603F08CFE00BF0837BD4680BDD9
:104B400014000020BD4900080000002020000020C3
:104B500004000020CC000020A4A500088D4B000814
:104B6000D0000020ACA50008614D00080D4E0008E3
:104B7000B4A50008D4000020D8000020DC000020EC
:104B8000E0000020E4000020C800002090B587B0BD
:104B900002AF78600023FB73634B1B6807F10F01C2
:104BA0004FF0FF32184603F09DF9FB7B002B36D106
:104BB0005E4800F05AFD5E4B18684FF0FF330093DB
:104BC00000230022032104F077FD5A4B00221A70C3
:104BD0000021594800F01AFB584B1B684FF0FF3179
:104BE000184603F05FFA564B00221A60534B1868C0
:104BF00000230022002102F0DBFF524B1B684FF024
:104C0000FF31184603F04EFA4F4B01221A704D4BFC
:104C1000186800230022002102F0CAFFBCE7FB7BDA
:104C2000012B3ED14949414800F0BBFC404B1C6878
:104C300003F0AEFF02464FF0FF3300930023012143
:104C4000204604F039FD3E4B1B68002B06D1404B3B
:104C5000186800230022002102F0AAFF374B1B68CE
:104C60004FF0FF31184603F01DFA354B394A1A60F0
:104C7000324B186800230022002102F099FF314BCB
:104C80001B684FF0FF31184603F00CFA2E4B01223F
:104C90001A702C4B186800230022002102F088FFB4
:104CA0007AE7FB7B022B7FF477AF2B491F4800F09C
:104CB00078FC1F4B1C6803F06BFF02464FF0FF337C
:104CC000009300230121204604F0F6FC1C4B1B68D6
:104CD000002B06D11E4B186800230022002102F091
:104CE00067FF164B1B684FF0FF31184603F0DAF9E7
:104CF000134B1A4A1A60114B186800230022002136
:104D000002F056FF0F4B1B684FF0FF31184603F0BF
:104D1000C9F90D4B01221A700A4B186800230022B2
:104D2000002102F045FF37E7D800002020000020D6
:104D3000D4000020E800002014000020DC00002047
:104D4000EC000020E0000020F0000020E8A50008B2
:104D5000E4000020E8E50108E8450108A8C00208D1
:104D600080B586B000AF786000237B610023FB74C0
:104D70004DF6C023FB60214B00221A70204B1B68AC
:104D8000002B06D11F4B1B684FF0FF31184603F074
:104D900089F900237B6129E00023FB7419E0FB7C87
:104DA000194A1344187AFB7C174AD15C144B1A68D1
:104DB0007B6913441B781A46FB7C42FA03F3DBB28F
:104DC00003F00103DBB21A4601F064FBFB7C013304
:104DD000FB74FB7C072BE2D9084B1B78012B0AD014
:104DE000142003F0A7FD7B6901337B617A69FB68BE
:104DF0009A42D1D3BFE700BFBDE700BFF00000205B
:104E0000EC000020E40000200400002080B584B005
:104E100000AF7860104A07F1080392E8030083E8C6
:104E200003000E4B1B7810333B4413F8083C194623
:104E30000B4800F0EBF9094B1B780133DAB2074B52
:104E40001A70064B1B78082B02D1044B00221A70F3
:104E500000BF1037BD4680BDBCA50008E80000209B
:104E60001400002080B582B002AF064B01933723B7
:104E70000093002380220449044803F0A5FB03F0BB
:104E80008DFDFEE7C8000020C4A50008714A000897
:104E900080B584B000AF786039600023FB737B6815
:104EA0009B78BB737B685B787B737B681B783B73F9
:104EB00007F10C031A49184600F0ECFE7B681B78DA
:104EC000022B10D0022B13DC002B02D0012B05D0BB
:104ED0000EE00021002001F07BFC0AE0012100200F
:104EE00001F076FC05E00221002001F071FC00E0F9
:104EF00000BF7B6818787B685B780022194601F058
:104F00001BF97B6818787B685B780022194601F0F2
:104F100021FB044A3B68136000BF1037BD4680BDCB
:104F2000414F0008F400002080B400AF034B1B6821
:104F30001846BD465DF8047B704700BFF8000020AE
:104F400080B582B000AF00237B604D4B1B78002BF7
:104F500008D14B4B01221A7043F69821494802F0C0
:104F600005FA89E0464B1B78012B24D1454802F015
:104F700057F978607B6843F2C722934208D97B686F
:104F800043F69822934203D83D4B02221A700CE05C
:104F90007B6842F6F722934207D97B6842F6E062CB
:104FA000934202D8384B1B68984743F698213548FE
:104FB00002F0DCF960E0324B1B78022B47D131481C
:104FC00002F02EF978607B68B3F57A7F12D37B68A4
:104FD00040F2DC5293420DD82C4B93F900301A4624
:104FE00001239340DB431A46294B1B681340284A90
:104FF000136014E07B68B3F5FA6F10D37B6840F65A
:10500000C41293420BD8214B93F900301A46012366
:1050100093401A461E4B1B6813431D4A13601B4BDB
:1050200093F90030DBB2013BDBB25AB2174B1A7076
:10503000164B93F90030B3F1FF3F02D1104B05221C
:105040001A7043F698210F4802F090F914E00C4BC7
:105050001B78052B10D10D4B1F221A70084B002214
:105060001A70094B1B68002B03D0074B1B6898472D
:1050700002E0084B01221A7000BF0837BD4680BD10
:10508000FD0000208C000020F40000200300002020
:10509000F8000020FC00002080B582B000AF03467D
:1050A0000A46FB711346BB71FB79022B10D0022B11
:1050B00013DC002B02D0012B05D00EE000210020D4
:1050C00001F086FB0AE00121002001F081FB05E0F0
:1050D0000221002001F07CFB00E000BFB979FB79E0
:1050E0000122184601F028F8B979FB790022184608
:1050F00001F07CF8B979FB790022184601F070F9CB
:10510000B979FB790022184601F0C4F900BF0837CD
:10511000BD4680BD80B584B000AF78600023FB73CE
:105120000023FB730CE0FB7B7A681344187AFB7B4B
:105130007A68D35C1946FFF7AFFFFB7B0133FB7343
:10514000FB7B072BEFD900BF00BF1037BD4680BDEA
:1051500080B582B000AF03460A46FB711346BB71AF
:10516000FB79022B10D0022B13DC002B02D0012B79
:1051700005D00EE00021002001F02AFB0AE0012109
:10518000002001F025FB05E00221002001F020FBBA
:1051900000E000BFB979FB790122184600F0CCFF8E
:1051A000B979FB790022184601F020F8B979FB792A
:1051B0000022184601F014F9B979FB79012218464A
:1051C00001F068F900BF0837BD4680BD80B582B0E8
:1051D00000AF78607B685A787B681B781946104668
:1051E000FFF7B6FF7B681A797B68DB7819461046B3
:1051F000FFF7AEFF7B68DA797B689B79194610462A
:10520000FFF7A6FF00BF0837BD4680BD80B582B05E
:1052100000AF78600B46FB707B6858787B68197824
:10522000FB789B08DBB203F00103002B0CBF0123CA
:105230000023DBB21A4601F02DF9FB789B08DBB2A4
:1052400003F00103002B0CBF01230023DBB21A463D
:105250007B689A707B6818797B68D978FB785B08E3
:10526000DBB203F00103002B0CBF01230023DBB2F0
:105270001A4601F00FF9FB785B08DBB203F001037B
:10528000002B0CBF01230023DBB21A467B685A7146
:105290007B68D8797B689979FB7803F00103002B50
:1052A0000CBF01230023DBB21A4601F0F3F8FB78B0
:1052B00003F00103002B0CBF01230023DBB21A46CD
:1052C0007B681A7200BF0837BD4680BD80B582B0CA
:1052D00000AF03460A46FB711346BB71FB79022BF4
:1052E00010D0022B13DC002B02D0012B05D00EE0D6
:1052F0000021002001F06CFA0AE00121002001F0F9
:1053000067FA05E00221002001F062FA00E000BF28
:10531000B979FB790122184600F00EFF00BF08376B
:10532000BD4680BD80B588B000AF78607B6893F8DB
:1053300058007B6893F859300122194601F0AAF809
:105340004FF4D273FB6102E0FB69013BFB61FB6937
:10535000002BF9D17B6893F858007B6893F859309B
:105360000022194601F096F80423BB6102E0BB69F4
:10537000013BBB61BB69002BF9D17B6893F85800F6
:105380007B6893F859300122194601F083F84FF4F5
:10539000D2737B6102E07B69013B7B617B69002BFF
:1053A000F9D17B6893F858007B6893F85930002254
:1053B000194601F06FF84FF4D2733B6102E03B698C
:1053C000013B3B613B69002BF9D17B6893F85800A6
:1053D0007B6893F859300122194601F05BF8074BBE
:1053E000FB6002E0FB68013BFB60FB68002BF9D12E
:1053F00000BF00BF2037BD4680BD00BFC0B0070062
:1054000080B582B000AF78600B46FB707B6893F884
:105410005A007B6893F85B300022194601F03AF895
:105420007B68F9784FF47A72184601F005FB00BFEB
:105430000837BD4680BD80B582B000AF78600B46AE
:10544000FB707B6893F85A007B6893F85B3001220D
:10545000194601F01FF87B68F9784FF47A72184604
:1054600001F0EAFA00BF0837BD4680BD80B584B0C0
:1054700000AF78607B6893F858207B6893F85930C8
:1054800019461046FFF722FF7B6893F85A207B6885
:1054900093F85B3019461046FFF718FF7B681846F3
:1054A00001F080FA7868FFF73DFF11217868FFF777
:1054B000A7FF1A4BFB6002E0FB68013BFB60FB6847
:1054C000002BF9D13A217868FFF79AFF0521786817
:1054D000FFF7B1FF21217868FFF792FF3621786846
:1054E000FFF78EFFC0217868FFF7A5FF7B6893F870
:1054F0005C309BB21946786800F075F8292178680D
:10550000FFF77EFF7B68002283F85D207B68002226
:1055100083F85E2000BF1037BD4680BDF09C0900B7
:1055200080B582B000AF7860084611461A4603463F
:10553000FB700B46BB7013467B702A217868FFF71F
:105540005FFF00217868FFF776FFFB7819467868DF
:10555000FFF771FF00217868FFF76DFFBB781946F0
:105560007868FFF768FF2B217868FFF749FF002173
:105570007868FFF760FF7B7819467868FFF75BFF74
:1055800000217868FFF757FF3B7C19467868FFF7E2
:1055900052FF2C217868FFF733FF00BF0837BD4664
:1055A00080BD80B584B002AF786039609F230093DE
:1055B00000237F2200217868FFF7B2FF7B6893F811
:1055C0005A007B6893F85B300122194600F062FFB5
:1055D0007B684FF420423968184601F07DFA00BF1D
:1055E0000837BD4680BD80B586B002AF78600B46F7
:1055F0007B800023FB810023BB817B881B0A9BB23D
:10560000DBB23B727B88DBB27B729F23009300236B
:105610007F2200217868FFF783FF7B6893F85A00A8
:105620007B6893F85B300122194600F033FF0023BA
:10563000FB8112E00023BB8109E07B6807F10801D0
:105640000222184601F048FABB890133BB81BB89AD
:105650007F2BF2D9FB890133FB81FB899F2BE9D991
:1056600000BF00BF1037BD4680BD80B582B000AF1F
:1056700078607B68002283F85E207B68002283F8D4
:105680005D207B6893F85C309BB219467868FFF721
:10569000AAFF00BF0837BD4680BD80B483B000AF0D
:1056A00078607B685B68002B08D17B681B689A6810
:1056B0007B681B6842F020029A6059E07B685B6857
:1056C000012B08D17B681B689A687B681B6842F4D1
:1056D00000629A604CE07B685B68022B08D17B68B3
:1056E0001B689A687B681B6842F400129A603FE06E
:1056F0007B685B68032B08D17B681B689A687B68B2
:105700001B6842F000629A6032E07B685B68042BA1
:1057100008D17B681B68DA687B681B6842F020024E
:10572000DA6025E07B685B68052B08D17B681B6825
:10573000DA687B681B6842F40062DA6018E07B6814
:105740005B68062B08D17B681B68DA687B681B687E
:1057500042F40012DA600BE07B685B68072B07D12C
:105760007B681B68DA687B681B6842F00062DA605D
:1057700000BF0C37BD465DF8047B704780B582B032
:1057800000AF78607B681B68334A93421CD17B680A
:105790005B68062B09D87B685B68DBB20B33DBB236
:1057A0005BB2184600F030FF06E07B685B68072BB1
:1057B00002D12F2000F028FF7B685B687A68526A6C
:1057C000264941F823202AE07B681B68244A93423B
:1057D00025D17B685B68042B09D87B685B68DBB2EA
:1057E0003833DBB25BB2184600F00EFF10E07B6886
:1057F0005B68042B0CD97B685B68072B08D87B6837
:105800005B68DBB24433DBB25BB2184600F0FCFEEF
:105810007B685B687A68526A124941F823207B688A
:1058200019687B685A6813465B001344DB000B441D
:1058300010331B687A6810687A68526843F0100168
:1058400013465B001344DB0003441033196000BFB0
:105850000837BD4680BD00BF006002400001002047
:10586000006402402001002080B582B000AF786063
:105870007B681B68244A934204D11521002000F064
:10588000A7FF08E07B681B68204A934203D11621DA
:10589000002000F09DFF7B6819687B685A681346FA
:1058A0005B001344DB000B44103300221A6078685D
:1058B000FFF7F3FE7B689A687B68DB681A437B68B6
:1058C0001B691A437B685B691A437B689B6942EAE0
:1058D00003017B68DB697A6810687A68526819434B
:1058E00013465B001344DB000344103319607B68EC
:1058F00093F82030012B02D17868FFF73FFF00BFFB
:105900000837BD4680BD00BF006002400064024011
:1059100080B485B000AFF860B9607A603B60FB6826
:105920001968FB685A6813465B001344DB000B449C
:1059300010331B68FA681068FA68526823F0010196
:1059400013465B001344DB00034410331960FB680B
:105950001968FB685A6813465B001344DB000B446C
:1059600014333A681A60FB681868FB685B68B968AA
:105970005A1C13465B001344DB0003441960FB68A8
:105980001868FB685B6879685A1C13465B0013440F
:10599000DB00034404331960FB681968FB685A682C
:1059A00013465B001344DB000B4410331B68FA689A
:1059B0001068FA68526843F0010113465B00134413
:1059C000DB0003441033196000BF1437BD465DF897
:1059D000047B704780B500AF074B9B68064A43F0D5
:1059E00020039360054B1B68002B02D0034B1B6800
:1059F000984700BF80BD00BF00600240000100204A
:105A000080B500AF074B9B68064A43F40063936080
:105A1000054B5B68002B02D0034B5B68984700BFC7
:105A200080BD00BF006002400001002080B500AFD3
:105A3000074B9B68064A43F400139360054B9B6831
:105A4000002B02D0034B9B68984700BF80BD00BF6E
:105A5000006002400001002080B500AF074B9B684A
:105A6000064A43F000639360054BDB68002B02D0CD
:105A7000034BDB68984700BF80BD00BF0060024059
:105A80000001002080B500AF074BDB68064A43F0F9
:105A90002003D360054B1B69002B02D0034B1B690D
:105AA000984700BF80BD00BF006002400001002099
:105AB00080B500AF074BDB68064A43F40063D36050
:105AC000054B5B69002B02D0034B5B69984700BF15
:105AD00080BD00BF006002400001002080B500AF23
:105AE000074BDB68064A43F40013D360054B9B6900
:105AF000002B02D0034B9B69984700BF80BD00BFBD
:105B0000006002400001002080B500AF074BDB6859
:105B1000064A43F00063D360054BDB69002B02D0DB
:105B2000034BDB69984700BF80BD00BF00600240A7
:105B30000001002080B500AF074B9B68064A43F088
:105B400020039360054B1B68002B02D0034B1B689E
:105B5000984700BF80BD00BF0064024020010020C4
:105B600080B500AF074B9B68064A43F4006393601F
:105B7000054B5B68002B02D0034B5B68984700BF66
:105B800080BD00BF006402402001002080B500AF4E
:105B9000074B9B68064A43F400139360054B9B68D0
:105BA000002B02D0034B9B68984700BF80BD00BF0D
:105BB000006402402001002080B500AF074B9B68C5
:105BC000064A43F000639360054BDB68002B02D06C
:105BD000034BDB68984700BF80BD00BF00640240F4
:105BE0002001002080B500AF074BDB68064A43F078
:105BF0002003D360054B1B69002B02D0034B1B69AC
:105C0000984700BF80BD00BF006402402001002013
:105C100080B500AF074BDB68064A43F40063D360EE
:105C2000054B5B69002B02D0034B5B69984700BFB3
:105C300080BD00BF006402402001002080B500AF9D
:105C4000074BDB68064A43F40013D360054B9B699E
:105C5000002B02D0034B9B69984700BF80BD00BF5B
:105C6000006402402001002080B500AF074BDB68D4
:105C7000064A43F00063D360054BDB69002B02D07A
:105C8000034BDB69984700BF80BD00BF0064024042
:105C90002001002080B582B000AF786039607B6859
:105CA000DB78002B02D0012B0CD017E07A4B1B685D
:105CB0007A685278114601228A401146764A0B438F
:105CC00013600BE0744B5B687A68527811460122CE
:105CD0008A401146704A0B43536000BF7B685B7873
:105CE00019466E4A3B6842F821307B689B78022B4C
:105CF00036D0022B4BDC002B02D0012B18D046E013
:105D0000654B9B687A685278114601228A40114699
:105D1000614A0B439360604BDB687A6852781146A6
:105D200001228A40D24311465B4A0B40D3602FE0E8
:105D3000594BDB687A685278114601228A40114635
:105D4000554A0B43D360544B9B687A68527811468E
:105D500001228A40D24311464F4A0B40936017E01C
:105D60004D4B9B687A685278114601228A40114651
:105D7000494A0B439360484BDB687A685278114676
:105D800001228A401146444A0B43D36000E000BF21
:105D90000E21022000F01CFD7B685B78032B0ED8DF
:105DA0003F4B1B687A68127811467A6852789200E5
:105DB00001FA02F211463A4A0B43136043E07B6852
:105DC0005B78072B12D87B685B78032B0ED9354B99
:105DD0001B687A68127811467A685278920001FA44
:105DE00002F211462F4A0B4313602CE07B685B786C
:105DF0000B2B12D87B685B78072B0ED92A4B1B68BC
:105E00007A68127811467A685278920001FA02F2A2
:105E10001146254A0B43136015E07B685B780F2B16
:105E200011D87B685B780B2B0DD9204B1B687A68E7
:105E3000127811467A685278920001FA02F21146FD
:105E40001A4A0B4313607B685B78042B08D87B6885
:105E50005B780633DBB25BB2184600F0D5FB16E088
:105E60007B685B78042B07D97B685B78092B03D8A8
:105E7000172000F0C9FB0AE07B685B78092B06D984
:105E80007B685B780F2B02D8282000F0BDFB00BF99
:105E90000837BD4680BD00BF003C014040010020E6
:105EA000083801400C3801401038014014380140D6
:105EB00080B483B000AF0346FB71084B5B69FA798D
:105EC000012101FA02F21146044A0B43536100BF5B
:105ED0000C37BD465DF8047B704700BF003C0140B5
:105EE00080B483B000AF0346FB71074B5A69FB795E
:105EF00022FA03F3DBB203F00103DBB218460C37DE
:105F0000BD465DF8047B7047003C014080B500AFA2
:105F1000054B1B68002B02D0034B1B6898470020E1
:105F2000FFF7C6FF00BF80BD4001002080B500AF75
:105F3000054B5B68002B02D0034B5B689847012040
:105F4000FFF7B6FF00BF80BD4001002080B500AF65
:105F5000054B9B68002B02D0034B9B68984702209F
:105F6000FFF7A6FF00BF80BD4001002080B500AF55
:105F7000054BDB68002B02D0034BDB6898470320FE
:105F8000FFF796FF00BF80BD4001002080B500AF45
:105F9000054B1B69002B02D0034B1B69984704205B
:105FA000FFF786FF00BF80BD4001002080B500AF35
:105FB0000520FFF795FF0346002B0AD0274B5B69AE
:105FC000002B02D0254B5B6998470520FFF770FF37
:105FD00042E00620FFF784FF0346002B0AD01F4B48
:105FE0009B69002B02D01D4B9B6998470620FFF749
:105FF0005FFF31E00720FFF773FF0346002B0AD055
:10600000164BDB69002B02D0144BDB699847072045
:10601000FFF74EFF20E00820FFF762FF0346002B4A
:106020000AD00E4B1B6A002B02D00C4B1B6A984700
:106030000820FFF73DFF0FE00920FFF751FF03465F
:10604000002B09D0054B5B6A002B02D0034B5B6A27
:1060500098470920FFF72CFF00BF80BD40010020BA
:1060600080B500AF0A20FFF73BFF0346002B0AD0A4
:10607000304B9B6A002B02D02E4B9B6A98470A201C
:10608000FFF716FF53E00B20FFF72AFF0346002B14
:106090000AD0284BDB6A002B02D0264BDB6A9847DC
:1060A0000B20FFF705FF42E00C20FFF719FF034626
:1060B000002B0AD01F4B1B6B002B02D01D4B1B6B00
:1060C00098470C20FFF7F4FE31E00D20FFF708FFA2
:1060D0000346002B0AD0174B5B6B002B02D0154BED
:1060E0005B6B98470D20FFF7E3FE20E00E20FFF7E3
:1060F000F7FE0346002B0AD00E4B9B6B002B02D001
:106100000C4B9B6B98470E20FFF7D2FE0FE00F2041
:10611000FFF7E6FE0346002B09D0064BDB6B002B96
:1061200002D0044BDB6B98470F20FFF7C1FE00BF86
:1061300080BD00BF4001002080B483B000AF0346A3
:10614000FB710B46BB7113467B71FB79022B2CD084
:10615000022B3DDC002B02D0012B13D038E0204B6A
:106160001B68BA795200032101FA02F2D2431340AC
:106170007979BA79520001FA02F21146184A0B43B2
:10618000136026E0174B1B68BA795200032101FA0D
:1061900002F2D24313407979BA79520001FA02F23D
:1061A0001146104A0B43136013E00F4B1B68BA797A
:1061B0005200032101FA02F2D24313407979BA79ED
:1061C000520001FA02F21146074A0B43136000E045
:1061D00000BF00BF0C37BD465DF8047B704700BFB1
:1061E00000000240000402400008024080B483B076
:1061F00000AF0346FB710B46BB7113467B71FB7905
:10620000022B28D0022B37DC002B02D0012B11D01F
:1062100032E01D4B1B68BA79012101FA02F2D24328
:1062200013407979BA7901FA02F21146164A0B4302
:10623000136022E0144B1B68BA79012101FA02F2C3
:10624000D24313407979BA7901FA02F211460E4A23
:106250000B43136011E00D4B1B68BA79012101FA61
:1062600002F2D24313407979BA7901FA02F2114667
:10627000064A0B43136000E000BF00BF0C37BD4669
:106280005DF8047B704700BF04040240040802402C
:1062900080B483B000AF0346FB710B46BB7113465D
:1062A0007B71FB79022B5DD0022B00F38680002BE3
:1062B00002D0012B2BD080E0BB79072B12D8424BA8
:1062C0001B68BA7992000F2101FA02F2D2431340FF
:1062D0007979BA79920001FA02F211463A4A0B43EF
:1062E00013606BE0394B1B68BA79083A92000F21B2
:1062F00001FA02F2D24313407979BA79083A92004E
:1063000001FA02F21146314A0B43136056E0BB79A1
:10631000072B12D82E4B1B68BA7992000F2101FA75
:1063200002F2D24313407979BA79920001FA02F26B
:106330001146274A0B43136040E0264B1B68BA798D
:10634000083A92000F2101FA02F2D2431340797900
:10635000BA79083A920001FA02F211461D4A0B433B
:1063600013602BE0BB79072B12D81B4B1B68BA7943
:1063700092000F2101FA02F2D24313407979BA79DF
:10638000920001FA02F21146134A0B43136015E022
:10639000124B1B68BA79083A92000F2101FA02F2F7
:1063A000D24313407979BA79083A920001FA02F29D
:1063B00011460A4A0B43136000E000BF00BF0C37D0
:1063C000BD465DF8047B7047200002402400024077
:1063D0002004024024040240200802402408024015
:1063E00080B483B000AF0346FB710B46BB7113460C
:1063F0007B71FB79022B2CD0022B3DDC002B02D0D1
:10640000012B13D038E0204B1B68BA7952000321CE
:1064100001FA02F2D24313407979BA79520001FAB3
:1064200002F21146184A0B43136026E0174B1B6813
:10643000BA795200032101FA02F2D243134079796A
:10644000BA79520001FA02F21146104A0B43136066
:1064500013E00F4B1B68BA795200032101FA02F2D4
:10646000D24313407979BA79520001FA02F2114607
:10647000074A0B43136000E000BF00BF0C37BD4666
:106480005DF8047B704700BF08000240080402402A
:106490000808024080B483B000AF0346FB710B468E
:1064A000BB7113467B71FB79022B2CD0022B3DDC98
:1064B000002B02D0012B13D038E07B79012B05D1C2
:1064C000BB7901229A40204B1A6031E07B79002B86
:1064D0002ED1BB794FF480329A401B4B1A6027E0D3
:1064E0007B79012B05D1BB7901229A40174B1A60A9
:1064F00020E07B79002B1DD1BB794FF480329A408C
:10650000124B1A6016E07B79012B05D1BB79012271
:106510009A400F4B1A600FE07B79002B0CD1BB79AE
:106520004FF480329A400A4B1A6005E000BF04E045
:1065300000BF02E000BF00E000BF00BF0C37BD4657
:106540005DF8047B704700BF180002401804024049
:106550001808024080B483B000AF0346FB710B46BD
:10656000BB7113467B71FB79022B2CD0022B3DDCD7
:10657000002B02D0012B13D038E0204B1B68BA79D6
:106580005200032101FA02F2D24313407979BA7919
:10659000520001FA02F21146184A0B43136026E03A
:1065A000174B1B68BA795200032101FA02F2D24359
:1065B00013407979BA79520001FA02F21146104A71
:1065C0000B43136013E00F4B1B68BA795200032191
:1065D00001FA02F2D24313407979BA79520001FAF2
:1065E00002F21146074A0B43136000E000BF00BFF0
:1065F0000C37BD465DF8047B704700BF0C000240BD
:106600000C0402400C08024080B483B000AF034683
:10661000FB7197F90730002B0BDBFB7903F01F02AE
:10662000074997F907305B09012000FA02F241F8A7
:10663000232000BF0C37BD465DF8047B704700BFC8
:1066400000E100E080B483B000AF03463960FB7125
:1066500097F90730002B09DB3B68DAB2064997F956
:1066600007301201D2B20B4483F8002300BF0C376D
:10667000BD465DF8047B704700E100E080B400AFE8
:106680002A4B1B68294A23F080731360274B1B6831
:10669000264A23F080631360254B1B68244A23F4A9
:1066A000FF4323F040031360214B1B68204A43F44F
:1066B000285313601E4B1B681D4A23F03F031360D1
:1066C0001B4B1B681A4A43F019031360184B1B68D5
:1066D000174A23F440331360154B154A1B681360A7
:1066E000134B1B68124A43F4800313600F4B1B6863
:1066F0000E4A43F4803313600C4B1B680B4A43F083
:10670000807313600B4B02221A600B4B1B680A4A02
:1067100023F001031360084B1B68074A43F0020390
:10672000136000BFBD465DF8047B7047003802402F
:1067300004380240003C02400838024080B400AFF8
:10674000074B1B68064A23F0F0031360044B044A0E
:106750001B68136000BFBD465DF8047B704700BF37
:106760000838024080B400AF084B1B68074A23F486
:10677000E0531360054B1B68044A43F480531360D5
:1067800000BFBD465DF8047B704700BF083802407B
:1067900080B400AF074B1B68064A23F460431360C4
:1067A000044B044A1B68136000BFBD465DF8047BC0
:1067B000704700BF0838024080B500AFFFF7BEFF4A
:1067C000FFF7D0FFFFF7E4FFFFF758FF00BF80BDE2
:1067D00080B483B000AF03460A46FB711346BB7119
:1067E000FB79022B1CD0022B25DC002B02D0012BC5
:1067F0000BD020E0134B1B68BA79012101FA02F299
:106800001146104A0B43136016E00F4B1B68BA7910
:10681000012101FA02F211460B4A0B4313600BE00F
:106820000A4B1B68BA79012101FA02F21146074AA4
:106830000B43136000E000BF00BF0C37BD465DF89E
:10684000047B7047303802404038024044380240F0
:1068500080B400AF044BDB6803F4E0620249034BF1
:106860001343CB6000BFFDE700ED00E00400FA0534
:1068700080B582B000AF78607B681B78022B42D075
:10688000022B5DDC002B02D0012B23D058E000212D
:106890000020FFF79DFF022204210020FFF74CFC9F
:1068A000052204210020FFF7F3FC0222052100202D
:1068B000FFF742FC052205210020FFF7E9FC022238
:1068C00007210020FFF738FC052207210020FFF7F1
:1068D000DFFC35E001210020FFF77AFF02220A21C8
:1068E0000120FFF729FC05220A210120FFF7D0FC37
:1068F00002220F210120FFF71FFC05220F2101209A
:10690000FFF7C6FC1CE000210020FFF761FF01211A
:106910000020FFF75DFF022203210120FFF70CFC9E
:10692000062203210120FFF7B3FC022205210120EA
:10693000FFF702FC062205210120FFF7A9FC00BF9A
:1069400000BF0837BD4680BD80B400AF034B0122B5
:106950001A7000BFBD465DF8047B704780010020BF
:1069600080B582B000AF78607B681B78022B10D0B6
:10697000022B13DC002B02D0012B05D00EE00C21E2
:106980000220FFF725FF09E00E210120FFF720FF7D
:1069900004E00F210120FFF71BFF00BF00BF0837F5
:1069A000BD4680BD80B582B000AF78607868FFF7E3
:1069B0005FFF7868FFF7D4FF7B685A787B689B7825
:1069C0001343DAB27B68DB781343DAB27B681B7956
:1069D0001343DAB27B685B791343DAB27B681B78C6
:1069E0001946144B53F821301A607B681B781A46FD
:1069F000104B53F822305A687B681B7819460D4BB0
:106A000053F8213042F004025A607B681B781A4622
:106A1000084B53F822301A687B681B781946054BDF
:106A200053F8213042F040021A6000BF0837BD46DB
:106A300080BD00BF8000002080B586B000AFF86048
:106A40000B467A60FB720023FB750023BB757B68E5
:106A50004FF47A7202FB03F31B4A19461B4800F0FD
:106A600001FCFB681B781A46194B53F82230FA7A5E
:106A7000DA6000BFFB681B781A46154B53F82230CA
:106A80009B68DB0903F00103012B03D1114B1B7839
:106A9000012BEFD10F4B1B78012B05D10223FB7586
:106AA0000C4B00221A700AE0084800F097FBFB68C4
:106AB0001B781A46064B53F82230DB68BB75FB7D0A
:106AC00018461837BD4680BD496900088C00002073
:106AD000800000208001002080B584B000AFF86005
:106AE000B9601346FB80FB6808331846FEF7BCFE0E
:106AF000FB6803F10800FB681B781A460E4B53F83D
:106B0000223003F10C01FB88BA68FEF701FFFB6835
:106B10001B781A46084B53F822305A68FB681B78DA
:106B20001946054B53F8213042F002025A6000BF6B
:106B30001037BD4680BD00BF8000002080B400AF8C
:106B400000BFBD465DF8047B704780B400AF00BF56
:106B5000BD465DF8047B704780B400AF00BFBD4602
:106B60005DF8047B7047000080B582B000AF7860AC
:106B70007B68254A934204D100210220FFF728FEBA
:106B80003DE07B68B3F1804F04D100210120FFF785
:106B90001FFE34E07B681D4A934204D1012101208D
:106BA000FFF716FE2BE07B68194A934204D10221BD
:106BB0000120FFF70DFE22E07B68164A934204D1C4
:106BC00003210120FFF704FE19E07B68124A93427B
:106BD00004D110210220FFF7FBFD10E07B680F4A73
:106BE000934204D111210220FFF7F2FD07E07B68F8
:106BF0000B4A934203D112210220FFF7E9FD00BFA7
:106C00000837BD4680BD00BF0000014000040040C1
:106C100000080040000C00400040014000440140DA
:106C20000048014080B582B000AF786000210020AC
:106C3000FFF7CEFD01210020FFF7CAFD7B683D4A2A
:106C400093420AD1022208210020FFF775FA01229F
:106C500008210020FFF71CFB67E07B68B3F1804F41
:106C60000AD1022205210020FFF766FA0122052140
:106C70000020FFF70DFB58E07B682F4A93420AD1B2
:106C8000022204210120FFF757FA022204210120E9
:106C9000FFF7FEFA49E07B68284A93420AD10222B4
:106CA00006210120FFF748FA022206210120FFF702
:106CB000EFFA3AE07B68224A93420AD1022200218D
:106CC0000020FFF739FA022200210020FFF7E0FA46
:106CD0002BE07B681B4A93420AD10222022100204A
:106CE000FFF72AFA032202210020FFF7D1FA1CE065
:106CF0007B68154A93420AD1022208210120FFF73E
:106D00001BFA022208210120FFF7C2FA0DE07B687E
:106D10000E4A934209D1022209210120FFF70CFA01
:106D2000022209210120FFF7B3FA00BF0837BD4650
:106D300080BD00BF0000014000040040000800408A
:106D4000000C004000400140004401400048014068
:106D500080B582B000AF78607B681B684D4A934273
:106D60000DD11920FFF750FC7B685B694A4A13601C
:106D7000484BDB68474A43F00103D36085E07B68FA
:106D80001B68B3F1804F0FD11C20FFF73DFC7B68DF
:106D90005B69414A53604FF08043DB684FF08042AB
:106DA00043F00103D36070E07B681B683B4A934269
:106DB0000DD11D20FFF728FC7B685B69364A936084
:106DC000364BDB68354A43F00103D3605DE07B68F6
:106DD0001B68334A93420DD11E20FFF715FC7B68D8
:106DE0005B692D4AD3602E4BDB682D4A43F00103CB
:106DF000D3604AE07B681B682A4A93420DD1322057
:106E0000FFF702FC7B685B69234A1361254BDB6853
:106E1000244A43F00103D36037E07B681B68224AB1
:106E200093420DD11820FFF7EFFB7B685B691A4A8C
:106E300053611D4BDB681C4A43F00103D36024E01F
:106E40007B681B68194A93420DD11920FFF7DCFBC0
:106E50007B685B69104A9361144BDB68134A43F00B
:106E60000103D36011E07B681B68114A93420CD187
:106E70001A20FFF7C9FB7B685B69074AD3610C4B9B
:106E8000DB680B4A43F00103D36000BF0837BD46FF
:106E900080BD00BF000001408401002000040040CC
:106EA00000080040000C0040004001400044014048
:106EB0000048014080B582B000AF78607B681B68F5
:106EC0004D4A93420DD11B20FFF79EFB7B689B69C7
:106ED0004A4A1360484BDB68474A43F00203D360D9
:106EE00085E07B681B68B3F1804F0FD11C20FFF752
:106EF0008BFB7B689B69414A53604FF08043DB68A2
:106F00004FF0804243F00203D36070E07B681B685F
:106F10003B4A93420DD11D20FFF776FB7B689B69AE
:106F2000364A9360364BDB68354A43F00203D36040
:106F30005DE07B681B68334A93420DD11E20FFF74A
:106F400063FB7B689B692D4AD3602E4BDB682D4A1F
:106F500043F00203D3604AE07B681B682A4A9342ED
:106F60000DD13220FFF750FB7B689B69234A1361E8
:106F7000254BDB68244A43F00203D36037E07B688B
:106F80001B68224A93420DD11820FFF73DFB7B6816
:106F90009B691A4A53611D4BDB681C4A43F002038C
:106FA000D36024E07B681B68194A93420DD11920F5
:106FB000FFF72AFB7B689B69104A9361144BDB68DF
:106FC000134A43F00203D36011E07B681B68114A47
:106FD00093420CD11A20FFF717FB7B689B69074A85
:106FE000D3610C4BDB680B4A43F00203D36000BF54
:106FF0000837BD4680BD00BF00000140A40100204D
:107000000004004000080040000C00400040014027
:107010000044014000480140B0B582B000AF786044
:107020007B681B6878229A617B681B6803221A625E
:107030007B681B68174A934204D17B681B684FF436
:107040000C425A647B681B7C1846FDF71BFA4FF014
:107050000002114BFDF7AAFB02460B4614461D46E3
:107060007B689B681846FDF7FDF902460B462046F3
:107070002946FDF771FA02460B46104619467B6811
:107080001C68FDF77BFC0346636300BF0837BD4601
:10709000B0BD00BF000001400000594080B483B083
:1070A00000AF78607B681B6801229A617B68DB7B9C
:1070B000022B10D0022B13DC002B02D0012B05D0A9
:1070C0000EE07B681B6801221A6209E07B681B687E
:1070D00003221A6204E07B681B680B221A6200BF5D
:1070E00000BF0C37BD465DF8047B704780B582B0A9
:1070F00000AF78607B681B681846FFF735FD7B683A
:107100001B681A687B681B6822F001021A607B68A2
:107110009B7B002B04D07B681B681846FFF782FD21
:107120007B685B7C012B02D17868FFF7C3FE7B682C
:107130001B687A689268DA627B689A887B681B6849
:107140009A627B689A897B681B681A637B689B7963
:10715000002B08D17B681B681A687B681B6822F0CB
:1071600010021A6007E07B681B681A687B681B685E
:1071700042F010021A607B689B7B022B03D1786877
:10718000FFF74AFF06E07B689B7B012B02D1786802
:10719000FFF784FF7B681B681A687B681B6842F0F6
:1071A00080021A607B681B681A687B681B6842F063
:1071B00004021A607B681B685A697B681B6842F08E
:1071C00001025A617B681B681A687B681B6842F081
:1071D00001021A6000BF0837BD4680BD80B483B08D
:1071E00000AF78607B681B685A697B681B6842F057
:1071F00001025A617B681B681A687B681B6822F071
:1072000001021A607B681B68DA687B681B6822F0E1
:107210000102DA6000BF0C37BD465DF8047B7047A1
:1072200080B485B000AF78600023FB607B689B79F9
:10723000002B04D17B681B685B6AFB600AE07B68FB
:107240009B79012B06D17B689A687B681B685B6A17
:10725000D31AFB60FB6818461437BD465DF8047B03
:107260007047000080B584B000AFF860B9607A6004
:10727000FB681B681A68FB681B6822F001021A6031
:10728000FB681B68BA68DA62FB681B685A69FB68AE
:107290001B6842F001025A61FB687A685A61F8681B
:1072A000FFF756FDFB681B681A68FB681B6842F015
:1072B00001021A60FB681B68244A934203D1244BE5
:1072C00001221A703DE0FB681B68B3F1804F03D1C7
:1072D0001F4B01225A7034E0FB681B681D4A934221
:1072E00003D11B4B01229A702BE0FB681B681A4AE2
:1072F000934203D1164B0122DA7022E0FB681B682F
:10730000164A934203D1124B01221A7119E0FB680D
:107310001B68134A934203D10D4B01225A7110E0AE
:10732000FB681B680F4A934203D1094B01229A71F3
:1073300007E0FB681B680C4A934202D1044B012210
:10734000DA7100BF1037BD4680BD00BF00000140AC
:10735000C40100200004004000080040000C004070
:1073600000400140004401400048014080B483B027
:1073700000AF786039607B681B681A687B681B689F
:1073800022F001021A607B683A689A607B681B6889
:107390003A68DA627B681B685A697B681B6842F04E
:1073A00001025A617B681B681A687B681B6842F09F
:1073B00001021A6000BF0C37BD465DF8047B7047C0
:1073C00080B500AF334B1B6903F00103012B22D1C1
:1073D000304B1B692F4A23F0010313612E4B1B789E
:1073E000012B11D12B4B1B682A4A23F00103136098
:1073F000284B5B69274A43F001035361254BDB6847
:10740000244A23F00103D360244B1B68002B02D0D5
:10741000224B1B689847224B1B6903F00103012B89
:1074200022D11F4B1B691E4A23F0010313611A4B23
:107430009B79012B11D11A4B1B68194A23F00103C8
:107440001360174B5B69164A43F001035361144BF9
:10745000DB68134A23F00103D360104B9B69002BB8
:1074600002D00E4B9B6998470D4B1B695B0803F0DC
:107470000103012B0CD10A4B1B69094A23F00203BB
:107480001361084B9B69002B02D0064B9B69984700
:1074900000BF80BD00000140C40100208401002025
:1074A00000440140A401002080B500AF1F4B1B69C0
:1074B00003F00103012B22D11C4B1B691B4A23F053
:1074C000010313611A4BDB79012B11D1174B1B6898
:1074D000164A23F001031360144B5B69134A43F00F
:1074E00001035361114BDB68104A23F00103D360A1
:1074F000104BDB69002B02D00E4BDB6998470B4B1E
:107500001B695B0803F00103012B0CD1074B1B69BE
:10751000064A23F002031361074BDB69002B02D0FC
:10752000054BDB69984700BF80BD00BF00480140A4
:10753000C401002084010020A401002080B500AF18
:107540001F4B1B6903F00103012B22D11C4B1B694C
:107550001B4A23F0010313611A4B5B79012B11D1F4
:10756000174B1B68164A23F001031360144B5B6929
:10757000134A43F001035361114BDB68104A23F0B7
:107580000103D360104B5B69002B02D00E4B5B698B
:1075900098470B4B1B695B0803F00103012B0CD1CF
:1075A000074B1B69064A23F002031361074B5B6913
:1075B000002B02D0054B5B69984700BF80BD00BF20
:1075C00000400140C401002084010020A4010020EB
:1075D00080B500AF074B1B69064A23F00203136115
:1075E000054B1B68002B02D0034B1B68984700BF5C
:1075F00080BD00BF00000140A401002080B500AFA5
:107600004FF080431B6903F00103012B2AD14FF097
:1076100080431B694FF0804223F0010313611E4B2E
:107620005B78012B17D14FF080431B684FF08042ED
:1076300023F0010313604FF080435B694FF08042F9
:1076400043F0010353614FF08043DB684FF0804209
:1076500023F00103D360114B5B68002B02D00F4B6A
:107660005B6898474FF080431B695B0803F0010398
:10767000012B0ED14FF080431B694FF0804223F065
:1076800002031361064B5B68002B02D0044B5B685E
:10769000984700BF80BD00BFC401002084010020C6
:1076A000A401002080B500AF1F4B1B6903F001034C
:1076B000012B22D11C4B1B691B4A23F001031361D0
:1076C0001A4B9B78012B11D1174B1B68164A23F0DC
:1076D00001031360144B5B69134A43F001035361C8
:1076E000114BDB68104A23F00103D360104B9B68F9
:1076F000002B02D00E4B9B6898470B4B1B695B0815
:1077000003F00103012B0CD1074B1B69064A23F040
:1077100002031361074B9B68002B02D0054B9B684B
:10772000984700BF80BD00BF00040040C401002096
:1077300084010020A401002080B500AF1F4B1B690D
:1077400003F00103012B22D11C4B1B691B4A23F0C0
:10775000010313611A4BDB78012B11D1174B1B6806
:10776000164A23F001031360144B5B69134A43F07C
:1077700001035361114BDB68104A23F00103D3600E
:10778000104BDB68002B02D00E4BDB6898470B4B8D
:107790001B695B0803F00103012B0CD1074B1B692C
:1077A000064A23F002031361074BDB68002B02D06B
:1077B000054BDB68984700BF80BD00BF0008004054
:1077C000C401002084010020A401002080B500AF86
:1077D0001F4B1B6903F00103012B22D11C4B1B69BA
:1077E0001B4A23F0010313611A4B1B79012B11D1A2
:1077F000174B1B68164A23F001031360144B5B6997
:10780000134A43F001035361114BDB68104A23F024
:107810000103D360104B1B69002B02D00E4B1B6978
:1078200098470B4B1B695B0803F00103012B0CD13C
:10783000074B1B69064A23F002031361074B1B69C0
:10784000002B02D0054B1B69984700BF80BD00BFCD
:10785000000C0040C401002084010020A40100208D
:1078600080B483B000AF78607B6803F108027B6866
:107870005A607B684FF0FF329A607B6803F1080220
:107880007B68DA607B6803F108027B681A617B68B9
:1078900000221A6000BF0C37BD465DF8047B7047BC
:1078A00080B483B000AF78607B6800221A6100BFAB
:1078B0000C37BD465DF8047B704780B485B000AFDF
:1078C000786039607B685B68FB603B68FA685A6087
:1078D000FB689A683B689A60FB689B683A685A60E4
:1078E000FB683A689A603B687A681A617B681B6833
:1078F0005A1C7B681A6000BF1437BD465DF8047BD4
:10790000704780B485B000AF786039603B681B6811
:10791000BB60BB68B3F1FF3F03D17B681B69FB60B1
:107920000CE07B680833FB6002E0FB685B68FB608F
:10793000FB685B681B68BA689A42F6D2FB685A68B3
:107940003B685A603B685B683A689A603B68FA68D3
:107950009A60FB683A685A603B687A681A617B688B
:107960001B685A1C7B681A6000BF1437BD465DF85F
:10797000047B704780B485B000AF78607B681B697A
:10798000FB607B685B687A6892689A607B689B683A
:107990007A6852685A60FB685B687A689A4203D1D9
:1079A0007B689A68FB685A607B6800221A61FB68F2
:1079B0001B685A1EFB681A60FB681B681846143760
:1079C000BD465DF8047B704780B584B000AF786039
:1079D00039607B68FB60FB68002B0AD14FF05003D5
:1079E00083F31188BFF36F8FBFF34F8FBB6000BF6E
:1079F000FEE702F071FAFB681A68FB68DB6BF96856
:107A0000096C01FB03F31A44FB689A60FB680022CF
:107A10009A63FB681A68FB685A60FB681A68FB681F
:107A2000DB6B013BF968096C01FB03F31A44FB684B
:107A3000DA60FB68FF2283F84420FB68FF2283F8AA
:107A400045203B68002B14D1FB681B69002B1AD022
:107A5000FB681033184601F025FA0346002B12D0BC
:107A60000C4B4FF080521A60BFF34F8FBFF36F8FF4
:107A700009E0FB6810331846FFF7F2FEFB68243379
:107A80001846FFF7EDFE02F057FA012318461037AB
:107A9000BD4680BD04ED00E080B58AB002AFF8605D
:107AA000B9601346FB71FB68002B0AD14FF05003FD
:107AB00083F31188BFF36F8FBFF34F8F3B6100BF1C
:107AC000FEE7FB68BA6802FB03F3FB61FB69503316
:107AD000184602F019FBB861BB69002B0DD0BB69D9
:107AE0007B617B6950337B61FA79BB6900931346F4
:107AF0007A69B968F86800F005F8BB69184620375C
:107B0000BD4680BD80B584B000AFF860B9607A60D2
:107B1000FB70BB68002B03D1BB69BA691A6002E035
:107B2000BB697A681A60BB69FA68DA63BB69BA68CC
:107B30001A640121B869FFF747FFBB69FA7883F837
:107B40004C2000BF1037BD4680BD80B582B000AF6D
:107B500078607B68002B0ED07B6800229A607B687F
:107B600000221A607B680022DA60002300220021D4
:107B7000786800F01DF800BF0837BD4680BD80B5AD
:107B800086B000AF0346FB7101237B6100233B619C
:107B9000FB791A4639697869FFF77EFFF860F86863
:107BA000FFF7D3FFFB6818461837BD4680BD0000BD
:107BB00080B58EB000AFF860B9607A603B6000239A
:107BC0007B63FB683B633B6B002B0AD14FF0500398
:107BD00083F31188BFF36F8FBFF34F8FBB6200BF7A
:107BE000FEE7BB68002B03D13B6B1B6C002B01D164
:107BF000012300E00023002B0AD14FF0500383F350
:107C00001188BFF36F8FBFF34F8F7B6200BFFEE71A
:107C10003B68022B03D13B6BDB6B012B01D10123B2
:107C200000E00023002B0AD14FF0500383F31188AA
:107C3000BFF36F8FBFF34F8F3B6200BFFEE701F0D2
:107C4000CFFA0346002B02D17B68002B01D1012320
:107C500000E00023002B0AD14FF0500383F311887A
:107C6000BFF36F8FBFF34F8FFB6100BFFEE702F0E2
:107C700033F93B6B9A6B3B6BDB6B9A4202D33B68ED
:107C8000022B29D13A68B968386B00F02FFBF862F3
:107C90003B6B5B6A002B10D03B6B2433184601F022
:107CA00001F90346002B13D03F4B4FF080521A606E
:107CB000BFF34F8FBFF36F8F0AE0FB6A002B07D033
:107CC000394B4FF080521A60BFF34F8FBFF36F8F65
:107CD00002F032F9012363E07B68002B03D102F04C
:107CE0002BF900235CE07B6B002B06D107F114031A
:107CF000184601F03BF901237B6302F01DF900F007
:107D00009BFE02F0E9F83B6B93F844305BB2B3F1B1
:107D1000FF3F03D13B6B002283F844203B6B93F879
:107D200045305BB2B3F1FF3F03D13B6B002283F8D8
:107D3000452002F001F93A1D07F1140311461846D7
:107D400001F02AF90346002B24D1386B00F0C6FB62
:107D50000346002B18D03B6B10337A681146184647
:107D600001F050F8386B00F051FB00F073FE034651
:107D7000002B7FF47CAF0C4B4FF080521A60BFF3A6
:107D80004F8FBFF36F8F72E7386B00F03FFB00F04F
:107D900061FE6CE7386B00F039FB00F05BFE0023FE
:107DA00018463837BD4680BD04ED00E080B590B080
:107DB00000AFF860B9607A603B60FB68BB63BB6B87
:107DC000002B0AD14FF0500383F31188BFF36F8F5C
:107DD000BFF34F8FBB6200BFFEE7BB68002B03D130
:107DE000BB6B1B6C002B01D1012300E00023002B97
:107DF0000AD14FF0500383F31188BFF36F8FBFF3A5
:107E00004F8F7B6200BFFEE73B68022B03D1BB6B49
:107E1000DB6B012B01D1012300E00023002B0AD1F1
:107E20004FF0500383F31188BFF36F8FBFF34F8F71
:107E30003B6200BFFEE702F027F9EFF311824FF03B
:107E4000500383F31188BFF36F8FBFF34F8FFA6135
:107E5000BB61FB697B63BB6B9A6BBB6BDB6B9A4251
:107E600002D33B68022B2FD1BB6B93F8453087F8C8
:107E70003330BB6B9B6BFB623A68B968B86B00F040
:107E800035FA97F93330B3F1FF3F12D1BB6B5B6A20
:107E9000002B16D0BB6B2433184601F003F80346C1
:107EA000002B0ED07B68002B0BD07B6801221A6060
:107EB00007E097F833300133DBB25AB2BB6B83F87B
:107EC00045200123FB6301E00023FB637B6B7B61A7
:107ED0007B6983F3118800BFFB6B18464037BD46B2
:107EE00080BD000080B58CB000AFF860B9607A60EA
:107EF0000023FB62FB68BB62BB6A002B0AD14FF018
:107F0000500383F31188BFF36F8FBFF34F8F3B6232
:107F100000BFFEE7BB68002B03D1BB6A1B6C002BC4
:107F200001D1012300E00023002B0AD14FF05003C0
:107F300083F31188BFF36F8FBFF34F8FFB6100BFD7
:107F4000FEE701F04DF90346002B02D17B68002BC0
:107F500001D1012300E00023002B0AD14FF0500390
:107F600083F31188BFF36F8FBFF34F8FBB6100BFE7
:107F7000FEE701F0B1FFBB6A9B6B7B627B6A002B63
:107F80001FD0B968B86A00F01BFA7B6A5A1EBB6A38
:107F90009A63BB6A1B69002B0FD0BB6A103318466B
:107FA00000F080FF0346002B07D03D4B4FF080527E
:107FB0001A60BFF34F8FBFF36F8F01F0BDFF012336
:107FC00069E07B68002B03D101F0B6FF002362E07B
:107FD000FB6A002B06D107F11003184600F0C6FF1C
:107FE0000123FB6201F0A8FF00F026FD01F074FF01
:107FF000BB6A93F844305BB2B3F1FF3F03D1BB6A75
:10800000002283F84420BB6A93F845305BB2B3F199
:10801000FF3F03D1BB6A002283F8452001F08CFFAB
:108020003A1D07F110031146184600F0B5FF03464C
:10803000002B23D1B86A00F03BFA0346002B17D07F
:10804000BB6A24337A681146184600F0DBFEB86A32
:1080500000F0DCF900F0FEFC0346002B89D1104B48
:108060004FF080521A60BFF34F8FBFF36F8F80E7DE
:10807000B86A00F0CBF900F0EDFC7AE7B86A00F0DE
:10808000C5F900F0E7FCB86A00F012FA0346002BCD
:108090003FF46FAF002318463037BD4680BD00BFA8
:1080A00004ED00E080B58EB000AF78603960002349
:1080B0007B637B68FB6200233B63FB6A002B0AD176
:1080C0004FF0500383F31188BFF36F8FBFF34F8FCF
:1080D0003B6200BFFEE7FB6A1B6C002B0AD04FF02F
:1080E000500383F31188BFF36F8FBFF34F8FFB6192
:1080F00000BFFEE701F074F80346002B02D13B6895
:10810000002B01D1012300E00023002B0AD14FF006
:10811000500383F31188BFF36F8FBFF34F8FBB61A1
:1081200000BFFEE701F0D8FEFB6A9B6BBB62BB6A37
:10813000002B24D0BB6A5A1EFB6A9A63FB6A1B6839
:10814000002B04D101F0C2F90246FB6A9A60FB6A77
:108150001B69002B0FD0FB6A1033184600F0A2FEFB
:108160000346002B07D0544B4FF080521A60BFF3E8
:108170004F8FBFF36F8F01F0DFFE012397E03B6865
:10818000002B11D13B6B002B0AD04FF0500383F32F
:108190001188BFF36F8FBFF34F8F7B6100BFFEE786
:1081A00001F0CAFE002382E07B6B002B06D107F1B1
:1081B0000C03184600F0DAFE01237B6301F0BCFEDD
:1081C00000F03AFC01F088FEFB6A93F844305BB2A1
:1081D000B3F1FF3F03D1FB6A002283F84420FB6A1E
:1081E00093F845305BB2B3F1FF3F03D1FB6A002245
:1081F00083F8452001F0A0FE3A4607F10C03114632
:10820000184600F0C9FE0346002B32D1F86A00F090
:108210004FF90346002B26D0FB6A1B68002B09D1BF
:1082200001F05AFEFB6A9B68184600F0F7FF3863BE
:1082300001F082FEFB6A24333A681146184600F0CA
:10824000E1FDF86A00F0E2F800F004FC0346002BC0
:108250007FF468AF184B4FF080521A60BFF34F8F16
:10826000BFF36F8F5EE7F86A00F0D0F800F0F2FB22
:1082700058E7F86A00F0CAF800F0ECFBF86A00F082
:1082800017F90346002B3FF44DAF3B6B002B0DD08D
:1082900001F022FEF86A00F011F87862FB6A9B6830
:1082A000796A184601F090F801F046FE002318465E
:1082B0003837BD4680BD00BF04ED00E080B485B016
:1082C00000AF78607B685B6A002B06D07B681B6B15
:1082D0001B68C3F13803FB6001E00023FB60FB680F
:1082E00018461437BD465DF8047B704780B586B0EC
:1082F00000AFF860B9607A6000237B61FB689B6B1C
:108300003B61FB681B6C002B0DD1FB681B68002BCD
:108310004DD1FB689B68184600F0E8FF7861FB6868
:1083200000229A6043E07B68002B19D1FB685868F3
:10833000FB681B6C1A46B96802F01AF9FB685A68A8
:10834000FB681B6C1A44FB685A60FB685A68FB6840
:108350009B689A422BD3FB681A68FB685A6026E038
:10836000FB68D868FB681B6C1A46B96802F000F914
:10837000FB68DA68FB681B6C5B421A44FB68DA60D6
:10838000FB68DA68FB681B689A4207D2FB689A6848
:10839000FB681B6C5B421A44FB68DA607B68022B4B
:1083A00005D13B69002B02D03B69013B3B613B6936
:1083B0005A1CFB689A637B6918461837BD4680BD16
:1083C00080B582B000AF786039607B681B6C002B91
:1083D00018D07B68DA687B681B6C1A447B68DA60AB
:1083E0007B68DA687B689B689A4203D37B681A686B
:1083F0007B68DA607B68D9687B681B6C1A463868D2
:1084000002F0B6F800BF0837BD4680BD80B584B025
:1084100000AF786001F060FD7B6893F84530FB7336
:1084200011E07B685B6A002B12D07B68243318460E
:1084300000F038FD0346002B01D000F00FFEFB7B5F
:10844000013BDBB2FB7397F90F30002BE9DC00E056
:1084500000BF7B68FF2283F8452001F06DFD01F02D
:108460003BFD7B6893F84430BB7311E07B681B696C
:10847000002B12D07B681033184600F013FD034622
:10848000002B01D000F0EAFDBB7B013BDBB2BB73EC
:1084900097F90E30002BE9DC00E000BF7B68FF227B
:1084A00083F8442001F048FD00BF1037BD4680BD71
:1084B00080B584B000AF786001F00EFD7B689B6BE7
:1084C000002B02D10123FB6001E00023FB6001F0DF
:1084D00033FDFB6818461037BD4680BD80B584B0BB
:1084E00000AF786001F0F8FC7B689A6B7B68DB6B0F
:1084F0009A4202D10123FB6001E00023FB6001F0FE
:108500001BFDFB6818461037BD4680BD80B485B0A2
:1085100000AF786039600023FB6014E00F4AFB680D
:1085200052F83330002B0BD10C49FB683A6841F804
:1085300033200A4AFB68DB0013447A685A6006E07D
:10854000FB680133FB60FB68072BE7D900BF00BF66
:108550001437BD465DF8047B704700BFCC01002096
:1085600080B586B000AFF860B9607A60FB687B6167
:1085700001F0B2FC7B6993F844305BB2B3F1FF3F8A
:1085800003D17B69002283F844207B6993F845304E
:108590005BB2B3F1FF3F03D17B69002283F8452032
:1085A00001F0CAFC7B699B6B002B06D17B692433ED
:1085B0007A68B968184600F049FC7869FFF726FF29
:1085C00000BF1837BD4680BD80B58CB004AFF860E1
:1085D000B9603B601346FB80FB889B00184601F0A6
:1085E00093FD78617B69002B0ED0602001F08CFD3B
:1085F000F861FB69002B03D0FB697A691A6305E017
:10860000786901F03BFE01E00023FB61FB69002B70
:1086100013D0FA8800230393FB690293FB6A01934A
:10862000BB6A00933B68B968F86800F00EF8F86917
:1086300000F09EF80123BB6102E04FF0FF33BB6105
:10864000BB6918462037BD4680BD80B588B000AFF5
:10865000F860B9607A603B603B6B186B7B689B008D
:108660001A46A52101F057FF3B6B1A6B7B6803F19B
:108670008043013B9B001344BB61BB6923F00703AC
:10868000BB61BB6903F00703002B0AD04FF0500316
:1086900083F31188BFF36F8FBFF34F8F7B6100BFF0
:1086A000FEE73B6BBA695A64BB68002B1FD00023FE
:1086B000FB6112E0BA68FB69134419783A6BFB69F5
:1086C000134434330A461A70BA68FB6913441B78A2
:1086D000002B06D0FB690133FB61FB690F2BE9D945
:1086E00000E000BF3B6B002283F8432003E03B6BBC
:1086F000002283F83420BB6A372B01D93723BB62B1
:108700003B6BBA6ADA623B6BBA6A1A653B6B002252
:108710005A653B6B04331846FFF7C2F83B6B1833BE
:108720001846FFF7BDF83B6B3A6B1A61BB6AC3F1A1
:1087300038023B6B9A613B6B3A6B5A623B6B00228F
:108740009A653B6B002283F85C203A68F968B86947
:1087500001F092FA02463B6B1A60FB6A002B02D0D2
:10876000FB6A3A6B1A6000BF2037BD4680BD00002F
:1087700080B582B000AF786001F0AEFB2D4B1B6876
:1087800001332C4A13602C4B1B68002B09D12A4A59
:108790007B681360274B1B68012B10D100F082FC13
:1087A0000DE0264B1B68002B09D1234B1B68DA6AAE
:1087B0007B68DB6A9A4202D81F4A7B681360204BB1
:1087C0001B6801331E4A13601D4B1A687B689A644C
:1087D0007B68DA6A1B4B1B689A4203D97B68DB6AA9
:1087E000184A13607B68DA6A13469B0013449B00A7
:1087F000154A1A447B68043319461046FFF75DF8A2
:1088000001F09AFB0D4B1B68002B0ED00A4B1B6826
:10881000DA6A7B68DB6A9A4207D20C4B4FF08052CF
:108820001A60BFF34F8FBFF36F8F00BF0837BD468D
:1088300080BD00BFE00600200C020020EC060020F6
:10884000FC060020E80600201002002004ED00E0F5
:1088500080B584B000AF786001F03EFB7B68002BF0
:1088600002D12C4B1B6800E07B68FB60FB68043383
:108870001846FFF77FF8FB689B6A002B04D0FB6863
:1088800018331846FFF776F8234B1B680133224A4A
:108890001360204B1B68FA689A420BD1FB680433C3
:1088A00019461E48FFF709F81D4B1B6801331C4A87
:1088B000136009E01B4B1B68013B1A4A1360F86800
:1088C00000F05EFC00F06CFC01F036FB164B1B6800
:1088D000002B1BD00F4B1B68FA689A4216D1134B22
:1088E0001B68002B0AD04FF0500383F31188BFF3AD
:1088F0006F8FBFF34F8FBB6000BFFEE70C4B4FF095
:1089000080521A60BFF34F8FBFF36F8F00BF1037D5
:10891000BD4680BD0C020020FC060020B4060020ED
:10892000C8060020E0060020EC0600200807002012
:1089300004ED00E080B584B000AF78600023FB60F8
:108940007B68002B17D0134B1B68002B0AD04FF00D
:10895000500383F31188BFF36F8FBFF34F8FBB605A
:1089600000BFFEE700F068F80021786800F0C2FD63
:1089700000F070F8F860FB68002B07D1064B4FF051
:1089800080521A60BFF34F8FBFF36F8F00BF103755
:10899000BD4680BD0807002004ED00E080B586B02C
:1089A00002AF1F4B019300230093002380221D4937
:1089B0001D48FFF709FEF860FB68012B02D100F0AB
:1089C000EDFDF860FB68012B16D14FF0500383F3E7
:1089D0001188BFF36F8FBFF34F8FBB6000BF134B86
:1089E0004FF0FF321A60124B01221A60114B002225
:1089F0001A6001F0CFF90EE0FB68B3F1FF3F0AD136
:108A00004FF0500383F31188BFF36F8FBFF34F8F85
:108A10007B6000BFFEE700BF1037BD4680BD00BFD2
:108A200004070020D0A5000875900008000700206A
:108A3000EC060020E406002080B400AF044B1B6865
:108A40000133034A136000BFBD465DF8047B7047E5
:108A50000807002080B584B000AF0023FB6000232E
:108A6000BB60424B1B68002B0AD14FF0500383F3CD
:108A70001188BFF36F8FBFF34F8F3B6000BFFEE7DE
:108A800001F02AFA394B1B68013B384A1360374B17
:108A90001B68002B62D1364B1B68002B5ED02FE089
:108AA000344BDB68DB68FB60FB6818331846FEF765
:108AB00061FFFB6804331846FEF75CFFFB68DA6A67
:108AC0002D4B1B689A4203D9FB68DB6A2A4A136064
:108AD000FB68DA6A13469B0013449B00274A1A443A
:108AE000FB68043319461046FEF7E7FEFB68DA6AB6
:108AF000234B1B68DB6A9A4202D3224B01221A6085
:108B00001C4B1B68002BCBD1FB68002B01D000F065
:108B100047FB1D4B1B687B607B68002B10D000F06F
:108B200059F80346002B02D0164B01221A607B68CD
:108B3000013B7B607B68002BF1D1134B00221A6054
:108B4000104B1B68002B09D00123BB600F4B4FF06B
:108B500080521A60BFF34F8FBFF36F8F01F0ECF9B3
:108B6000BB6818461037BD4680BD00BF080700200F
:108B7000E0060020A0060020E806002010020020E9
:108B80000C020020F4060020F006002004ED00E0B6
:108B900080B483B000AF054B1B687B607B681846D0
:108BA0000C37BD465DF8047B704700BFE40600202B
:108BB00080B582B000AF01F067FA00237B60044B00
:108BC0001B683B603B6818460837BD4680BD00BF48
:108BD000E406002080B586B000AF00237B614F4BD8
:108BE0001B68002B40F08F804D4B1B6801333B61AD
:108BF0004B4A3B6913603B69002B20D1494B1B68F2
:108C00001B68002B0AD04FF0500383F31188BFF389
:108C10006F8FBFF34F8F3B6000BFFEE7414B1B6878
:108C2000FB60414B1B683F4A13603F4AFB6813607F
:108C30003E4B1B6801333D4A136000F0B1FA3C4BD8
:108C40001B683A699A4249D3364B1B681B68002B54
:108C500004D1374B4FF0FF321A603FE0314B1B68B5
:108C6000DB68DB68BB60BB685B687B603A697B681C
:108C70009A4203D22E4A7B6813602FE0BB6804330C
:108C80001846FEF777FEBB689B6A002B04D0BB68D2
:108C900018331846FEF76EFEBB68DA6A254B1B6870
:108CA0009A4203D9BB68DB6A224A1360BB68DA6A5E
:108CB00013469B0013449B001F4A1A44BB680433AD
:108CC00019461046FEF7F9FDBB68DA6A1B4B1B68B4
:108CD000DB6A9A42B8D301237B61B5E7174B1B6867
:108CE000DA6A154913469B0013449B000B441B682A
:108CF000012B01D901237B61114B1B68002B07D08D
:108D000001237B6104E00F4B1B6801330D4A1360A4
:108D10007B6918461837BD4680BD00BF0807002094
:108D2000E4060020980600209C060020F80600209B
:108D300000070020E8060020100200200C0200209E
:108D4000F4060020F006002080B485B000AF284B68
:108D50001B68002B03D0274B01221A6041E0254BF2
:108D600000221A60244B1B68FB6010E0FB68002B9C
:108D70000AD14FF0500383F31188BFF36F8FBFF315
:108D80004F8F7B6000BFFEE7FB68013BFB601B4928
:108D9000FA6813469B0013449B000B441B68002B8E
:108DA000E4D0FA6813469B0013449B00134A134413
:108DB000BB60BB685B685A68BB685A60BB685A682E
:108DC000BB6808339A4204D1BB685B685A68BB68C9
:108DD0005A60BB685B68DB68094A1360064AFB6837
:108DE000136000BF1437BD465DF8047B704700BFB9
:108DF00008070020F4060020E806002010020020EA
:108E00000C02002080B584B000AF786039607B68C8
:108E1000002B0AD14FF0500383F31188BFF36F8FFB
:108E2000BFF34F8FFB6000BFFEE7074B1B68183393
:108E300019467868FEF765FD0121386800F05AFB95
:108E400000BF1037BD4680BD0C02002080B586B043
:108E500000AFF860B9607A60FB68002B0AD14FF070
:108E6000500383F31188BFF36F8FBFF34F8F7B6184
:108E700000BFFEE70A4B1B6818331946F868FEF777
:108E80001CFD7B68002B02D04FF0FF33BB6079687C
:108E9000B86800F02FFB00BF1837BD4680BD00BF8B
:108EA0000C02002080B586B000AF78607B68DB687C
:108EB000DB683B613B69002B0AD14FF0500383F321
:108EC0001188BFF36F8FBFF34F8FFB6000BFFEE7CA
:108ED0003B6918331846FEF74DFD1E4B1B68002BEF
:108EE0001DD13B6904331846FEF744FD3B69DA6A3D
:108EF000194B1B689A4203D93B69DB6A164A136017
:108F00003B69DA6A13469B0013449B00134A1A44D8
:108F10003B69043319461046FEF7CFFC05E03B6978
:108F2000183319460E48FEF7C8FC3B69DA6A0D4B48
:108F30001B68DB6A9A4205D901237B610A4B012237
:108F40001A6001E000237B617B6918461837BD4633
:108F500080BD00BF08070020E806002010020020A6
:108F6000A00600200C020020F406002080B483B08C
:108F700000AF7860064B1A687B681A60054B1A6868
:108F80007B685A6000BF0C37BD465DF8047B7047B4
:108F9000F8060020E406002080B588B000AF7860B5
:108FA00039607B68002B0AD14FF0500383F311889E
:108FB000BFF36F8FBFF34F8F3B6100BFFEE73B688E
:108FC000002B0AD14FF0500383F31188BFF36F8F4A
:108FD000BFF34F8FFB6000BFFEE700F07DFF1D4B2E
:108FE0001B68BB617B685B68BA69D31A7B613B68AD
:108FF0001B68B3F1FF3F02D10023FB6123E07B68D4
:109000001A68154B1B689A4207D07B685B68BA697F
:109010009A4202D30123FB6115E03B681B687A6921
:109020009A420BD23B681A687B69D21A3B681A6075
:109030007868FFF79BFF0023FB6104E03B68002298
:109040001A600123FB6100F077FFFB6918462037A7
:10905000BD4680BDE4060020F806002080B400AFC5
:10906000034B01221A6000BFBD465DF8047B7047C8
:10907000F406002080B582B000AF786000F052F8AE
:10908000064B1B68012BF9D9054B4FF080521A6033
:10909000BFF34F8FBFF36F8FF0E700BF10020020C8
:1090A00004ED00E080B582B000AF00237B600CE0EF
:1090B0007A6813469B0013449B00124A13441846D7
:1090C000FEF7CEFB7B6801337B607B68372BEFD9E3
:1090D0000D48FEF7C5FB0D48FEF7C2FB0C48FEF736
:1090E000BFFB0C48FEF7BCFB0B48FEF7B9FB0B4B74
:1090F000054A1A600A4B054A1A6000BF0837BD4688
:1091000080BD00BF100200207006002084060020F1
:10911000A0060020B4060020CC06002098060020FF
:109120009C06002080B582B000AF19E000F0D4FEAC
:10913000104BDB68DB687B607B6804331846FEF706
:1091400019FC0D4B1B68013B0B4A13600B4B1B6852
:10915000013B0A4A136000F0EFFE786800F010F857
:10916000064B1B68002BE1D100BF00BF0837BD468E
:1091700080BD00BFB4060020E0060020C806002025
:1091800080B582B000AF78607B681B6B184601F039
:1091900075F8786801F072F800BF0837BD4680BDE9
:1091A00080B483B000AF0C4B1B681B68002B04D14C
:1091B0000A4B4FF0FF321A6008E0074B1B68DB6870
:1091C000DB687B607B685B68044A136000BF0C3718
:1091D000BD465DF8047B704798060020000700201C
:1091E00080B483B000AF0B4B1B68002B02D101236E
:1091F0007B6008E0084B1B68002B02D102237B60D8
:1092000001E000237B607B6818460C37BD465DF8A3
:10921000047B7047EC0600200807002080B584B06E
:1092200000AF78607B68BB600023FB607B68002B2D
:1092300051D0BB68DA6A2A4B1B68DB6A9A4241D27A
:10924000BB689B69002B06DB254B1B68DB6AC3F1FF
:109250003802BB689A61BB685969BB68DA6A134611
:109260009B0013449B001F4A1344994222D1BB68C0
:1092700004331846FEF77EFB194B1B68DA6ABB689D
:10928000DA62BB68DA6A184B1B689A4203D9BB687A
:10929000DB6A154A1360BB68DA6A13469B00134405
:1092A0009B00104A1A44BB68043319461046FEF767
:1092B00004FB04E00A4B1B68DA6ABB68DA6201232C
:1092C000FB6008E0BB681A6D054B1B68DB6A9A42BD
:1092D00001D20123FB60FB6818461037BD4680BDF4
:1092E0000C02002010020020E806002080B586B0A5
:1092F00000AF78607B683B6100237B617B68002B5B
:1093000056D02E4B1B683A699A420AD04FF0500350
:1093100083F31188BFF36F8FBFF34F8FFB6000BFE4
:10932000FEE73B695B6D002B0AD14FF0500383F3DE
:109330001188BFF36F8FBFF34F8FBB6000BFFEE795
:109340003B695B6D5A1E3B695A653B69DA6A3B694A
:109350001B6D9A422CD03B695B6D002B28D13B6979
:1093600004331846FEF706FB3B691A6D3B69DA6267
:109370003B69DB6AC3F138023B699A613B69DA6A8F
:109380000F4B1B689A4203D93B69DB6A0C4A136096
:109390003B69DA6A13469B0013449B00094A1A444E
:1093A0003B69043319461046FEF787FA01237B61B7
:1093B0007B6918461837BD4680BD00BF0C020020EF
:1093C000E80600201002002080B588B000AF786069
:1093D00039607B68BB6101237B617B68002B6AD0AD
:1093E000BB695B6D002B0AD14FF0500383F31188EA
:1093F000BFF36F8FBFF34F8FFB6000BFFEE7BB690A
:109400001B6D3A689A4202D93B68FB6102E0BB6976
:109410001B6DFB61BB69DB6AFA699A424BD0BB6981
:109420005B6D7A699A4246D1254B1B68BA699A42AC
:109430000AD14FF0500383F31188BFF36F8FBFF34E
:109440004F8FBB6000BFFEE7BB69DB6A3B61BB6956
:10945000FA69DA62BB699B69002B04DBFB69C3F123
:109460003802BB699A61BB6959693A6913469B0026
:1094700013449B00134A134499421CD1BB69043323
:109480001846FEF777FABB69DA6A0F4B1B689A42F7
:1094900003D9BB69DB6A0C4A1360BB69DA6A1346FD
:1094A0009B0013449B00074A1A44BB6904331946C6
:1094B0001046FEF702FA00BF2037BD4680BD00BF50
:1094C0000C02002010020020E806002080B400AF4B
:1094D000074B1B68002B04D0054B1B685A6D0132EB
:1094E0005A65034B1B681846BD465DF8047B704700
:1094F0000C02002080B584B000AF78603960214B49
:109500001B68FB60204B1B6804331846FEF732FAD9
:109510007B68B3F1FF3F0AD13B68002B07D01A4BA1
:109520001B68043319461948FEF7C7F926E0FA68A4
:109530007B681344BB60144B1B68BA685A60BA68F6
:10954000FB689A4209D2124B1A680F4B1B6804330E
:1095500019461046FEF7D5F910E00E4B1A680A4B73
:109560001B68043319461046FEF7CBF90A4B1B68FB
:10957000BA689A4202D2084ABB68136000BF10372B
:10958000BD4680BDE40600200C020020CC06002071
:109590009C060020980600200007002080B584B0BB
:1095A00002AF00237B6000F031FB114B1B68002BE6
:1095B0000BD0104B01930523009300234FF48072CE
:1095C0000D490E48FFF700F878607B68002B0AD140
:1095D0004FF0500383F31188BFF36F8FBFF34F8FAA
:1095E0003B6000BFFEE77B6818460837BD4680BD7C
:1095F0003C07002040070020D8A50008ED97000890
:1096000080B588B002AFF860B9607A603B602C200A
:1096100000F07AFD78617B69002B0DD07B69002218
:1096200083F828207B6901933B6A00933B687A6842
:10963000B968F86800F005F87B6918461837BD4628
:1096400080BD80B586B000AFF860B9607A603B60DD
:10965000BB68002B0AD14FF0500383F31188BFF38E
:109660006F8FBFF34F8F7B6100BFFEE77B6A002BDC
:109670001ED000F0CBFA7B6AFA681A607B6ABA687F
:109680009A617B6A3A68DA617B6A3A6A1A627B6A33
:1096900004331846FEF704F97B68002B08D07B6A78
:1096A00093F8283043F00403DAB27B6A83F8282069
:1096B00000BF1837BD4680BD80B58AB000AFF860E6
:1096C000B9607A603B6000237B62FB68002B0AD1A3
:1096D0004FF0500383F31188BFF36F8FBFF34F8FA9
:1096E0003B6200BFFEE71A4B1B68002B2AD0BB6809
:1096F0007B617B68BB61FB68FB61BB68052B18DC89
:10970000FFF76EFD0346022B09D1114B186807F1D4
:10971000140100233A6BFEF74BFA786212E00C4B0F
:10972000186807F1140100230022FEF741FA78625D
:1097300008E0074B186807F1140100233A68FEF7A8
:1097400035FB78627B6A18462837BD4680BD00BF6E
:109750003C07002080B588B002AF78603960224BAA
:109760001B68DB68DB687B617B6904331846FEF7A6
:1097700001F97B6993F8283003F00403002B22D011
:109780007B699A697B68D1187B683A68786900F0D0
:10979000D1F80346002B1FD00023009300237A68E2
:1097A00000217869FFF788FF38613B69002B13D1EE
:1097B0004FF0500383F31188BFF36F8FBFF34F8FC8
:1097C000FB6000BFFEE77B6993F8283023F00103BC
:1097D000DAB27B6983F828207B691B6A786998472D
:1097E00000BF1837BD4680BD3407002080B584B067
:1097F00000AF786007F10803184600F057F8F860EA
:10980000BB681946F86800F003F800F0D5F8F1E7F6
:1098100080B584B000AF78603960FFF70DF907F1CB
:109820000803184600F066F8F860BB68002B30D1DA
:109830003B68002B0AD17A68FB689A4206D8FFF78A
:1098400009F9F9687868FFF785FF24E03B68002B89
:1098500008D0134B1B681B68002B01D1012300E0CB
:1098600000233B600F4B18687A68FB68D31A3A688C
:109870001946FEF775FEFFF7EDF80346002B0AD1F7
:10988000094B4FF080521A60BFF34F8FBFF36F8FB9
:1098900001E0FFF7DFF800BF1037BD4680BD00BF15
:1098A000380700203C07002004ED00E080B485B0BC
:1098B00000AF78600E4B1B681B68002B01D10122A2
:1098C00000E000227B681A607B681B68002B05D1D2
:1098D000074B1B68DB681B68FB6001E00023FB6033
:1098E000FB6818461437BD465DF8047B704700BF1F
:1098F0003407002080B584B000AF7860FFF748F9E6
:10990000F8600B4B1B68FA689A4205D200F01AF90E
:109910007B6801221A6002E07B6800221A60044A18
:10992000FB681360FB6818461037BD4680BD00BF5A
:109930004407002080B586B000AFF860B9607A6057
:109940003B6000237B61FB68BA685A60FB68FA6879
:109950001A61BA687B689A4212D87A683B68D21A50
:10996000FB689B699A4202D301237B611BE0104B89
:109970001A68FB68043319461046FDF7C2FF12E06F
:109980007A683B689A4206D2BA683B689A4202D328
:1099900001237B6107E0074B1A68FB680433194613
:1099A0001046FDF7AEFF7B6918461837BD4680BDEF
:1099B000380700203407002080B58CB002AFAEE03D
:1099C000BB68002BC0F2AB803B697B627B6A5B6942
:1099D000002B04D07B6A04331846FDF7CBFF3B1DF8
:1099E0001846FFF787FF3862BB68092B00F29680A4
:1099F00001A252F823F000BF219A0008219A000822
:109A0000219A0008959A0008A99A0008F39A00087C
:109A1000219A0008219A0008959A0008A99A00083E
:109A20007B6A93F8283043F00103DAB27B6A83F84B
:109A30002820FA687B6A9B69D118FB683A6A786AC1
:109A4000FFF778FF0346002B69D07B6A1B6A786AB0
:109A500098477B6A93F8283003F00403002B5ED00C
:109A6000FA687B6A9B691A44002300930023002153
:109A7000786AFFF721FEF861FB69002B4FD14FF0A8
:109A8000500383F31188BFF36F8FBFF34F8FBB6118
:109A900000BFFEE77B6A93F8283023F00103DAB2B7
:109AA0007B6A83F828203AE07B6A93F8283043F0F9
:109AB0000103DAB27B6A83F82820FA687B6A9A612C
:109AC0007B6A9B69002B0AD14FF0500383F3118806
:109AD000BFF36F8FBFF34F8F7B6100BFFEE77B6AE1
