:020000040800F2
:1000000000000120191F0008691F0008691F00086F
:10001000691F0008691F0008691F00080000000030
:10002000000000000000000000000000691F000840
:10003000691F000800000000691F0008651600081D
:1000400000000000691F0008691F0008691F000800
:10005000691F0008691F0008691F0008691F000860
:10006000691F0008691F0008691F0008691F000850
:10007000691F0008691F0008691F0008691F000840
:10008000691F0008691F0008691F000800000000C0
:10009000000000000000000000000000691F0008D0
:1000A000691F0008691F0008691F0008691F000810
:1000B000691F0008691F0008691F0008691F000800
:1000C000691F0008691F0008691F0008691F0008F0
:1000D000691F0008DD1D0008411E00080000000027
:1000E000691F0008691F0008691F00080000000060
:1000F000000000000000000000000000691F000870
:1001000000000000691F0008691F0008691F00083F
:1001100000000000000000000000000000000000DF
:10012000691F0008691F0008691F0008691F00088F
:10013000691F00080000000000000000000000002F
:10014000000000000000000000000000691F00081F
:10015000691F0008691F0008691F0008A51E000824
:10016000691F0008691F000800000000000000006F
:10017000000000000000000000000000000000007F
:10018000000000000000000000000000000000006F
:04019000691F0008DB
:1001980010B5054C237833B9044B13B10448AFF3B9
:1001A80000800123237010BD2400002000000000FF
:1001B800C41F000808B5034B1BB103490348AFF33C
:1001C800008008BD0000000028000020C41F0008AF
:1001D80081F0004102E000BF83F0004330B54FEAF0
:1001E80041044FEA430594EA050F08BF90EA020F5D
:1001F8001FBF54EA000C55EA020C7FEA645C7FEAF0
:10020800655C00F0E2804FEA5454D4EB5555B8BF12
:100218006D420CDD2C4480EA020281EA030382EA83
:10022800000083EA010180EA020281EA0303362D15
:1002380088BF30BD11F0004F4FEA01314FF4801CE8
:100248004CEA113102D0404261EB410113F0004FFA
:100258004FEA03334CEA133302D0524263EB4303B1
:1002680094EA050F00F0A780A4F10104D5F1200E4F
:100278000DDB02FA0EFC22FA05F2801841F10001AA
:1002880003FA0EF2801843FA05F359410EE0A5F17E
:1002980020050EF1200E012A03FA0EFC28BF4CF0AF
:1002A800020C43FA05F3C01851EBE37101F0004565
:1002B80007D54FF0000EDCF1000C7EEB00006EEB72
:1002C8000101B1F5801F1BD3B1F5001F0CD34908FC
:1002D8005FEA30004FEA3C0C04F101044FEA445253
:1002E80012F5800F80F09A80BCF1004F08BF5FEADA
:1002F800500C50F1000041EB045141EA050130BDBA
:100308005FEA4C0C404141EB0101013C28BFB1F5CB
:10031800801FE9D291F0000F04BF01460020B1FA16
:1003280081F308BF2033A3F10B03B3F120020CDAE9
:100338000C3208DD02F1140CC2F10C0201FA0CF0C7
:1003480021FA02F10CE002F11402D8BFC2F1200C2C
:1003580001FA02F120FA0CFCDCBF41EA0C019040E2
:10036800E41AA2BF01EB0451294330BD6FEA04042B
:100378001F3C1CDA0C340EDC04F11404C4F1200216
:1003880020FA04F001FA02F340EA030021FA04F328
:1003980045EA030130BDC4F10C04C4F1200220FA7F
:1003A80002F001FA04F340EA0300294630BD21FABD
:1003B80004F0294630BD94F0000F83F4801306BF83
:1003C80081F480110134013D4EE77FEA645C18BF77
:1003D8007FEA655C29D094EA050F08BF90EA020F0E
:1003E80005D054EA000C04BF1946104630BD91EA06
:1003F800030F1EBF0021002030BD5FEA545C05D109
:100408004000494128BF41F0004130BD14F5800447
:100418003CBF01F5801130BD01F0004545F0FE41BB
:1004280041F470014FF0000030BD7FEA645C1ABFF0
:10043800194610467FEA655C1CBF0B46024650EA27
:10044800013406BF52EA033591EA030F41F4002153
:1004580030BD00BF90F0000F04BF0021704730B5D9
:100468004FF4806404F132044FF000054FF00001AE
:1004780050E700BF90F0000F04BF0021704730B56F
:100488004FF4806404F1320410F0004548BF404244
:100498004FF000013EE700BF42004FEAE2014FEA99
:1004A80031014FEA02701FBF12F07F4393F07F4F74
:1004B80081F06051704732F07F4208BF704793F077
:1004C8007F4F04BF41F40021704730B54FF460748A
:1004D80001F0004521F000411CE700BF50EA01028D
:1004E80008BF704730B54FF000050AE050EA010236
:1004F80008BF704730B511F0004502D5404261EBA6
:1005080041014FF4806404F132045FEA915C3FF4E6
:10051800D8AE4FF003025FEADC0C18BF03325FEA83
:10052800DC0C18BF033202EBDC02C2F1200300FA34
:1005380003FC20FA02F001FA03FE40EA0E0021FA59
:1005480002F11444BDE600BF70B54FF0FF0C4CF447
:10055800E06C1CEA11541DBF1CEA135594EA0C0FF9
:1005680095EA0C0F00F0DEF82C4481EA030621EA34
:100578004C5123EA4C5350EA013518BF52EA03356F
:1005880041F4801143F4801338D0A0FB02CE4FF021
:100598000005E1FB02E506F00042E0FB03E54FF051
:1005A8000006E1FB03569CF0000F18BF4EF0010E49
:1005B800A4F1FF04B6F5007F64F5407404D25FEA45
:1005C8004E0E6D4146EB060642EAC62141EA5551F8
:1005D8004FEAC52040EA5E504FEACE2EB4F1FD0C3A
:1005E80088BFBCF5E06F1ED8BEF1004F08BF5FEAB8
:1005F800500E50F1000041EB045170BD06F000466A
:1006080046EA010140EA020081EA0301B4EB5C0416
:10061800C2BFD4EB0C0541EA045170BD41F480110E
:100628004FF0000E013C00F3AB8014F1360FDEBF33
:10063800002001F0004170BDC4F10004203C35DA0F
:100648000C341BDC04F11404C4F1200500FA05F392
:1006580020FA04F001FA05F240EA020001F0004233
:1006680021F0004110EBD37021FA04F642EB0601A9
:100678005EEA430E08BF20EAD37070BDC4F10C04D3
:10068800C4F1200500FA04F320FA05F001FA04F297
:1006980040EA020001F0004110EBD37041F1000183
:1006A8005EEA430E08BF20EAD37070BDC4F120058E
:1006B80000FA05F24EEA020E20FA04F301FA05F2F6
:1006C80043EA020321FA04F001F0004121FA04F29E
:1006D80020EA020000EBD3705EEA430E08BF20EA6E
:1006E800D37070BD94F0000F0FD101F000464000A8
:1006F80041EB010111F4801F08BF013CF7D041EA2A
:10070800060195F0000F18BF704703F0004652002D
:1007180043EB030313F4801F08BF013DF7D043EAFE
:100728000603704794EA0C0F0CEA135518BF95EAB4
:100738000C0F0CD050EA410618BF52EA4306D1D13B
:1007480081EA030101F000414FF0000070BD50EA5A
:10075800410606BF1046194652EA430619D094EAE4
:100768000C0F02D150EA013613D195EA0C0F05D1CE
:1007780052EA03361CBF104619460AD181EA030122
:1007880001F0004141F0FE4141F470014FF00000DA
:1007980070BD41F0FE4141F4780170BD70B54FF075
:1007A800FF0C4CF4E06C1CEA11541DBF1CEA1355F5
:1007B80094EA0C0F95EA0C0F00F0A7F8A4EB0504D7
:1007C80081EA030E52EA03354FEA013100F08880CE
:1007D8004FEA03334FF0805545EA131343EA126397
:1007E8004FEA022245EA111545EA10654FEA00264C
:1007F8000EF000419D4208BF964244F1FD0404F505
:10080800407402D25B084FEA3202B61A65EB030560
:100818005B084FEA32024FF480104FF4002CB6EB1D
:10082800020E75EB030E22BFB61A754640EA0C009D
:100838005B084FEA3202B6EB020E75EB030E22BFDD
:10084800B61A754640EA5C005B084FEA3202B6EB1E
:10085800020E75EB030E22BFB61A754640EA9C00DD
:100868005B084FEA3202B6EB020E75EB030E22BFAD
:10087800B61A754640EADC0055EA060E18D04FEA6B
:10088800051545EA16754FEA06164FEAC30343EA0B
:1008980052734FEAC2025FEA1C1CC0D111F4801FD8
:1008A8000BD141EA00014FF000004FF0004CB6E7D1
:1008B80011F4801F04BF01430020B4F1FD0C88BF70
:1008C800BCF5E06F3FF6AFAEB5EB030C04BFB6EB7B
:1008D800020C5FEA500C50F1000041EB045170BD6E
:1008E8000EF0004E4EEA113114EB5C04C2BFD4EB9B
:1008F8000C0541EA045170BD41F480114FF0000E1F
:10090800013C90E645EA060E8DE60CEA135594EA9A
:100918000C0F08BF95EA0C0F3FF43BAF94EA0C0F9D
:100928000AD150EA01347FF434AF95EA0C0F7FF412
:1009380025AF104619462CE795EA0C0F06D152EA66
:1009480003353FF4FDAE1046194622E750EA41064A
:1009580018BF52EA43067FF4C5AE50EA41047FF45B
:100968000DAF52EA43057FF4EBAE12E74A0011D20D
:1009780012F5001211D20DD56FF47873B3EB6252F1
:100988000ED44FEAC12343F0004343EA505323FAFD
:1009980002F070474FF00000704750EA013002D172
:1009A8004FF0FF3070474FF00000704780B584B0BB
:1009B80000AF0346FB710023BB81CD233B73FB795A
:1009C8007B7307F10C030221184600F061F800BFA1
:1009D8001037BD4680BD80B582B000AFAB23FB7138
:1009E800FB1D0121184600F053F800BF0837BD462B
:1009F80080BD000080B588B000AFF860B9607A604B
:100A08000023FB770023BB610023FB7500233B61B8
:100A18000023FB750EE0FB7DFA6813441B783B61ED
:100A280007F110030121184600F068FAB861FB7D50
:100A38000133FB75FB7DBA689A42ECD80B4B9B6877
:100A48000A4A43F0010393607A68BB699A4202D16B
:100A58000123FB7705E07A68BB699A4201D000233D
:100A6800FB77FB7F18462037BD4680BD003002402B
:100A780080B584B000AF02233B603B46184600F0C7
:100A880031FBFB68DBB218461037BD4680BD00005D
:100A980080B582B000AF786039603B689AB2044B89
:100AA8007968044801F0F2F800BF0837BD4680BDF8
:100AB80040771B000000002080B485B000AF78604C
:100AC8000023FB737B68B3F1005F06D37B680D4A94
:100AD800934202D80123FB730CE07B68B3F1006FEB
:100AE80006D37B68084A934202D80123FB7301E0CE
:100AF8000023FB73FB7B18461437BD465DF8047B67
:100B0800704700BF000001200000040880B586B0CF
:100B180000AF7860154BFB600023FB8200233B612C
:100B28007B681B789BB20133FB82FB8A043B7A68A3
:100B380013441B683B61FB8A043B3A691946786891
:100B4800FFF758FF0346012B09D10420FFF72EFFBA
:100B580007F10C0304211846FFF79AFF01E0FFF79D
:100B68003AFF00BF1837BD4680BD00BF64010200D0
:100B780080B586B000AF78600023FB8200233B611C
:100B88000023FB817B681B789BB20133FB82FB8AC5
:100B9800043B7A6813441B683B61104B1B689BB28B
:100BA800C3F30B039BB2FB81FB8A043B3A691946EA
:100BB8007868FFF71FFF0346012B09D10220FFF7D2
:100BC800F5FE07F10E0302211846FFF761FF01E069
:100BD800FFF701FF00BF1837BD4680BD002004E0C5
:100BE80080B586B000AF78600023FB8200233B61AC
:100BF8000023FB737B681B789BB20133FB82FB8A63
:100C0800043B7A6813441B683B61FB8A043B3A69DE
:100C180019467868FFF7EEFE0346012B0DD1012037
:100C2800FFF7C4FEFFF724FF0346FB7307F10F032A
:100C380001211846FFF72CFF01E0FFF7CCFE00BFAB
:100C48001837BD4680BD80B586B000AF78600023F8
:100C5800FB8200233B610323FB737B681B789BB2F9
:100C68000133FB82FB8A043B7A6813441B683B61AF
:100C7800FB8A043B3A6919467868FFF7BBFE0346CE
:100C8800012B0DD10120FFF791FE0421012000F076
:100C980001FA07F10F0301211846FFF7F9FE01E0F9
:100CA800FFF799FE00BF1837BD4680BD80B586B0F6
:100CB80000AF78600023FB8200233B610023FB60C8
:100CC8000023FB720023BB727B681B789BB2013345
:100CD800FB82FB8A043B7A6813441B683B61FB8AEE
:100CE800043B3A6919467868FFF784FE0346012BEE
:100CF80026D10120FFF75AFE7B68D3F80230FB604B
:100D08007B689B79FB72F868FFF7D6FE0346BB72D7
:100D1800BB7A012B0DD17B68D91DFA7A0023F868BC
:100D280000F002FA07F10A0301211846FFF7B0FEA6
:100D380008E007F10A0301211846FFF7A9FE01E0C0
:100D4800FFF749FE00BF1837BD4680BD80B588B0A3
:100D580000AF78600023FB830023BB6100237B6125
:100D680000233B610023FB737B681B789BB2013334
:100D7800FB83FB8B043B7A6813441B68BB61FB8BCA
:100D8800043BBA6919467868FFF734FE0346012B1D
:100D980020D10120FFF70AFE114B1B687B617B699C
:100DA800B3F1FF3F0FD00123FB7307F10F030121BC
:100DB8001846FFF76DFE0B4B0B4A9A607B693B6147
:100DC8003B69984708E007F10F0301211846FFF730
:100DD8005FFE01E0FFF7FFFD00BF2037BD4680BD85
:100DE8000440000800ED00E00040000880B582B033
:100DF80000AF0123FB710123BB7100237B71C82263
:100E080000212D4801F0ADF82C4B01222A492C482D
:100E180000F0ACFF0346BB71BB79002B02D0002366
:100E2800FB7144E0244B1B787B717B799AB2234B8E
:100E38002449234800F09AFF0346BB71BB79002B75
:100E480002D00023FB7132E01B4B5B78103B082B70
:100E58002CD801A252F823F0850E0008B50E000820
:100E68008D0E0008950E0008B50E00089D0E0008AE
:100E7800A50E0008B50E0008AD0E00080E48FFF7D5
:100E880045FE14E00C48FFF773FE10E00A48FFF730
:100E9800A7FE0CE00848FFF7D6FE08E00648FFF773
:100EA80005FF04E00448FFF751FF00E000BFFB79AD
:100EB80018460837BD4680BD4000002040771B001B
:100EC800000000204100002080B500AF054800F078
:100ED80065FE00F00BF8FFF789FF03461A46024B40
:100EE8001A70F8E7000000200801002080B500AF64
:100EF8000C21002000F03AFB00BF80BD80B485B013
:100F080000AF786039600023BB600023FB6009E014
:100F1800FB689B007A681344094A1B681360FB68E6
:100F28000133FB60FA683B689A42F1D3044B1B68B3
:100F3800BB60BB6818461437BD465DF8047B704734
:100F48000030024080B400AF054B064A5A60044B9B
:100F5800054A5A6000BFBD465DF8047B704700BF74
:100F6800003C024023016745AB89EFCD80B500AF57
:100F780000F032F8034B1B69024A43F00043136147
:100F880000BF80BD003C024080B582B000AF7860F1
:100F980000F022F87B68052B01D905237B600D4BF7
:100FA8001B690C4A43F0020313610A4B1B6923F0C7
:100FB80078027B68DB00074913430B61054B1B690B
:100FC800044A43F48033136100F006F800BF083781
:100FD800BD4680BD003C024080B400AF00BF064B58
:100FE800DB681B0C03F00103012BF8D000BF00BF26
:100FF800BD465DF8047B7047003C024080B582B076
:1010080000AF78600B46FB70FFF7E6FF074B1B69E4
:10101800064A43F0010313617B68FA781A70FFF7F8
:10102800DBFF00BF0837BD4680BD00BF003C024063
:1010380080B582B000AF78600B467B80FFF7CCFFAD
:10104800074B1B69064A43F0010313617B687A88E2
:101058001A80FFF7C1FF00BF0837BD4680BD00BF3B
:10106800003C024080B582B000AF78603960FFF77D
:10107800B3FF074B1B69064A43F0010313617B6802
:101088003A681A60FFF7A8FF00BF0837BD4680BD61
:10109800003C024080B584B000AF7860396000231E
:1010A800FB73FFF74FFF0023FB730EE07868FFF731
:1010B8006BFF0B4B1B690A4A23F0020313617B6821
:1010C80001337B60FB7B0133FB73FB7B3A689A42FD
:1010D800ECD2FFF74BFF00BF1037BD4680BD00BF05
:1010E800003C024080B483B000AF78607B681B6826
:1010F800012B02D0022B08D00EE00A4B5B691B0CB7
:1011080003F03F027B689A6006E0064B5B691B0AA6
:10111800DAB27B68DA6000BF00BF0C37BD465DF805
:10112800047B7047003C024080B586B000AFF86091
:10113800B9607A60FB7000237B61FFF703FF254BE2
:101148001B6923F44073FA7812021146214A0B43B3
:10115800136100237B6132E0FB78022B1FD0022B46
:101168002ADC002B02D0012B0CD025E0BA687B6961
:1011780013441B781946F868FFF740FFFB680133F2
:10118800FB6019E07B695B00BA6813441B88194649
:10119800F868FFF74DFFFB680233FB600CE07B69E2
:1011A8009B00BA6813441B681946F868FFF75AFF92
:1011B800FB680433FB6000BF7B6901337B617A699C
:1011C8007B689A42C8D3FFF7D1FE00BF1837BD46E7
:1011D80080BD00BF003C024080B483B000AF03462E
:1011E800FB710B46BB7113467B71FB79022B2CD02C
:1011F800022B3DDC002B02D0012B13D038E0204B12
:101208001B68BA795200032101FA02F2D243134053
:101218007979BA79520001FA02F21146184A0B4359
:10122800136026E0174B1B68BA795200032101FAB4
:1012380002F2D24313407979BA79520001FA02F2E4
:101248001146104A0B43136013E00F4B1B68BA7921
:101258005200032101FA02F2D24313407979BA7994
:10126800520001FA02F21146074A0B43136000E0EC
:1012780000BF00BF0C37BD465DF8047B704700BF58
:1012880000000240000402400008024080B483B01D
:1012980000AF0346FB710B46BB7113467B71FB79AC
:1012A800022B5DD0022B00F38680002B02D0012B8D
:1012B8002BD080E0BB79072B12D8424B1B68BA7938
:1012C80092000F2101FA02F2D24313407979BA79D8
:1012D800920001FA02F211463A4A0B4313606BE09E
:1012E800394B1B68BA79083A92000F2101FA02F2C9
:1012F800D24313407979BA79083A920001FA02F296
:101308001146314A0B43136056E0BB79072B12D8BC
:101318002E4B1B68BA7992000F2101FA02F2D243D0
:1013280013407979BA79920001FA02F21146274AF4
:101338000B43136040E0264B1B68BA79083A9200C9
:101348000F2101FA02F2D24313407979BA79083AA7
:10135800920001FA02F211461D4A0B4313602BE07A
:10136800BB79072B12D81B4B1B68BA7992000F2147
:1013780001FA02F2D24313407979BA79920001FA5C
:1013880002F21146134A0B43136015E0124B1B6817
:10139800BA79083A92000F2101FA02F2D2431340B7
:1013A8007979BA79083A920001FA02F211460A4AA2
:1013B8000B43136000E000BF00BF0C37BD465DF86B
:1013C800047B7047200002402400024020040240B1
:1013D80024040240200802402408024080B483B05C
:1013E80000AF0346FB7197F90730002B0BDBFB7945
:1013F80003F01F02074997F907305B09012000FA3B
:1014080002F241F8232000BF0C37BD465DF8047B8B
:10141800704700BF00E100E080B400AF2A4B1B68B2
:10142800294A23F080731360274B1B68264A23F050
:1014380080631360254B1B68244A23F4FF4323F081
:1014480040031360214B1B68204A43F42853136060
:101458001E4B1B681D4A23F03F0313601B4B1B6880
:101468001A4A43F019031360184B1B68174A23F4F0
:1014780040331360154B154A1B681360134B1B68E8
:10148800124A43F4800313600F4B1B680E4A43F45F
:10149800803313600C4B1B680B4A43F08073136056
:1014A8000B4B02221A600B4B1B680A4A23F00103FC
:1014B8001360084B1B68074A43F00203136000BF20
:1014C800BD465DF8047B704700380240043802408E
:1014D800003C02400838024080B400AF074B1B684C
:1014E800064A23F0F0031360044B044A1B68136098
:1014F80000BFBD465DF8047B704700BF0838024056
:1015080080B400AF084B1B68074A23F4E05313600C
:10151800054B1B68044A43F48053136000BFBD4663
:101528005DF8047B704700BF0838024080B400AF04
:10153800074B1B68064A23F460431360044B044AB4
:101548001B68136000BFBD465DF8047B704700BF91
:101558000838024080B500AFFFF7BEFFFFF7D0FFA5
:10156800FFF7E4FFFFF758FF00BF80BD80B483B0EA
:1015780000AF03460A46FB711346BB71FB79022B89
:101588001CD0022B25DC002B02D0012B0BD020E035
:10159800134B1B68BA79012101FA02F21146104A6D
:1015A8000B43136016E00F4B1B68BA79012101FA4F
:1015B80002F211460B4A0B4313600BE00A4B1B68FF
:1015C800BA79012101FA02F21146074A0B43136066
:1015D80000E000BF00BF0C37BD465DF8047B7047D4
:1015E80030380240403802404438024080B400AFEE
:1015F8000B4B1B680A4A23F004031360084B1B6853
:10160800074A23F002031360054B1B68044A43F0A2
:101618000103136000BFBD465DF8047B704700BF3F
:1016280010E000E080B400AF0B4B1B680A4A23F0BF
:1016380001031360084B00225A60074B00229A608E
:10164800054B1B68044A23F00203136000BFBD4624
:101658005DF8047B704700BF10E000E080B500AF84
:10166800074B1B78DBB2002B01D1FFF7DBFF054BE3
:101678001B68002B02D0034B1B68984700BF80BD36
:10168800100100200C01002080B584B000AF786004
:1016980039600023FB603B68002B2ED07868FEF78A
:1016A800D9FE1CA3D3E90023FEF74EFF02460B46E2
:1016B80010461946FFF75AF90346FB60FB68B3F179
:1016C800807F02D36FF07F43FB600F4AFB68536053
:1016D8000D4B00229A600D4A3B6813600C4B0022A8
:1016E8001A70094B1B68084A43F002031360064B43
:1016F8001B68054A43F00103136000BF1037BD465D
:1017080080BD00BFAFF3008010E000E00C010020B6
:1017180010010020000000000082C44080B582B0A3
:1017280000AF78607B681B680F4A934204D104219C
:101738000220FFF71BFF12E07B681B680B4A9342ED
:1017480004D111210120FFF711FF08E07B681B6815
:10175800074A934203D105210220FFF707FF00BF84
:101768000837BD4680BD00BF00100140004400405E
:101778000014014080B582B000AF786000210020DD
:10178800FFF7F4FE7B681B68274A934214D10222B4
:1017980009210020FFF720FD072209210020FFF77B
:1017A80075FD02220A210020FFF716FD07220A21F3
:1017B8000020FFF76BFD32E07B681B681B4A9342F1
:1017C80014D1022202210020FFF706FD0722022180
:1017D8000020FFF75BFD022203210020FFF7FCFC3D
:1017E800072203210020FFF751FD18E07B681B68E2
:1017F8000F4A934213D102220B210020FFF7ECFC81
:1018080008220B210020FFF741FD02220C210020B5
:10181800FFF7E2FC08220C210020FFF737FD00BF8C
:101828000837BD4680BD00BF00100140004400409D
:10183800001401400000000080B586B000AF786059
:101848000023FB8200237B754FF000024FF000035A
:10185800C7E902237B681B68794A934245D17B68B4
:101868005B681846FEF7F6FD4FF00002754BFEF771
:101878006BFE02460B466EA1D1E90001FEF78EFF12
:1018880002460B46C7E90223D7E90201FFF76EF8C3
:101898000346FB82FB8A1846FEF7ECFD02460B4620
:1018A800D7E90201FEF798FC02460B461046194696
:1018B8004FF00002634BFEF747FE02460B46104608
:1018C80019464FF00002604BFEF788FC02460B46B3
:1018D80010461946FFF74AF803467B75FB8A1A013A
:1018E8007B7D1A43564B9A609EE07B681B68574A7B
:1018F80093424AD17B685B681846FEF7ABFD4FF010
:101908000002504BFEF720FE02460B464AA1D1E9E1
:101918000001FEF743FF02460B46C7E90223D7E959
:101928000201FFF723F80346FB82FB8A07EE903A91
:10193800F8EE677A17EE900AFEF7AEFD02460B4600
:10194800D7E90201FEF748FC02460B461046194645
:101958004FF000023B4BFEF7F7FD02460B461046E0
:1019680019464FF00002384BFEF738FC02460B468A
:1019780010461946FEF7FAFF03467B75FB8A1A01E3
:101988007B7D1A43314B9A604EE07B681B68304A76
:10199800934249D17B685B681846FEF75BFD4FF0C0
:1019A8000002284BFEF7D0FD02460B4620A1D1E9E4
:1019B8000001FEF7F3FE02460B46C7E90223D7E90A
:1019C8000201FEF7D3FF0346FB82FB8A07EE903A3B
:1019D800F8EE677A17EE900AFEF75EFD02460B46B0
:1019E800D7E90201FEF7F8FB02460B4610461946F6
:1019F8004FF00002134BFEF7A7FD02460B461046B8
:101A080019464FF00002104BFEF7E8FB02460B4662
:101A180010461946FEF7AAFF03467B75FB8A1A0192
:101A28007B7D1A430A4B9A6000BF1837BD4680BDBC
:101A380000000000F406944100000000F406844110
:101A480000100140000030400000E03F004400402A
:101A58000014014080B582B000AF78607B681B68D5
:101A68001C4A93420DD17B689B691B4A1360194B32
:101A7800DB68184A43F04003D3602520FFF7AEFC2B
:101A880024E07B681B68154A93420DD17B689B69EB
:101A9800134A1360114BDB68104A43F04003D360CC
:101AA8002620FFF79BFC11E07B681B680D4A9342D8
:101AB8000CD17B689B690C4A13600A4BDB68094AA6
:101AC80043F04003D3604720FFF788FC00BF083786
:101AD800BD4680BD001001401401002000440040B4
:101AE80018010020001401401C01002080B582B0BC
:101AF80000AF78607B681B681C4A93420DD17B68F5
:101B08001B6A1B4A1360194BDB68184A43F0200311
:101B1800D3602520FFF762FC24E07B681B68154A28
:101B280093420DD17B681B6A134A1360114BDB6823
:101B3800104A43F02003D3602620FFF74FFC11E042
:101B48007B681B680D4A93420CD17B681B6A0C4A60
:101B580013600A4BDB68094A43F02003D36047202F
:101B6800FFF73CFC00BF0837BD4680BD00100140B0
:101B780020010020004400402401002000140140FE
:101B88002801002080B400AF034B01221A7000BF67
:101B9800BD465DF8047B70472C01002080B582B0FB
:101BA80000AF78607868FFF7B9FD7868FFF7E2FD65
:101BB8007B681B680022DA607B681B6800221A6158
:101BC8007B6899687B681A697B681B680A43DA60D6
:101BD8007B681B687A68D2681A617868FFF72CFE00
:101BE8007B685B69012B02D17868FFF733FF7B685C
:101BF800DB69012B02D17868FFF778FF7B681B68E7
:101C0800DB687A68126843F4005343F00C03D3602E
:101C180000BF0837BD4680BD80B586B000AFF8600C
:101C28000B467A60FB720023FB7516497868FFF74C
:101C38002BFDFB681B68FA7A5A6000BFFB681B68BB
:101C48001B6803F04003002B03D10F4B1B78012BBB
:101C5800F4D10D4B1B78012B05D10223FB750A4BE0
:101C680000221A7009E0FB681B681A68FB681B6889
:101C780022F040021A60FFF7D5FCFB7D18461837A2
:101C8800BD4680BD8D1B00082C01002080B586B0A4
:101C980000AFF860B9603B601346FB800023FB751A
:101CA8000023BB82FB68002B02D0BB68002B02D14B
:101CB8000123FB7519E00023BB8210E0BB8ABA68D8
:101CC80013441B783A681946F868FFF7A5FF0346DE
:101CD800FB75FB7D002B07D1BB8A0133BB82BA8A17
:101CE800FB889A42EAD300E000BFFB7D184618370C
:101CF800BD4680BD80B586B000AFF860B9607A6037
:101D08000023FB7517497868FFF7BEFC00BFFB6826
:101D18001B681B6803F02003002B03D1124B1B78B0
:101D2800012BF4D1104B1B78012B05D10223FB7535
:101D38000D4B00221A700FE0FB681B681A68FB68DD
:101D48001B6822F020021A60FB681B685B68DAB225
:101D5800BB681A70FFF766FCFB7D18461837BD464E
:101D680080BD00BF8D1B00082C01002080B586B007
:101D780000AFF860B9603B601346FB800023FB7539
:101D88000023BB82FB68002B02D0BB68002B02D16A
:101D98000123FB7518E00023BB820FE0BB8ABA68F9
:101DA80013443A681946F868FFF7A4FF0346FB7521
:101DB800FB7D002B07D1BB8A0133BB82BA8AFB8823
:101DC8009A42EBD300E000BFFB7D18461837BD46AA
:101DD80080BD000080B500AF144B1B689B0903F061
:101DE8000103012B0CD1114B1B68104A23F040034F
:101DF80013600F4B1B68002B02D00D4B1B689847D4
:101E08000A4B1B685B0903F00103012B0CD1074B3C
:101E18001B68064A23F020031360064B1B68002B3F
:101E280002D0044B1B68984700BF80BD00100140DA
:101E3800140100202001002080B500AF144B1B685E
:101E48009B0903F00103012B0CD1114B1B68104AAD
:101E580023F0400313600F4B1B68002B02D00D4B7F
:101E68001B6898470A4B1B685B0903F00103012BA9
:101E78000CD1074B1B68064A23F020031360064B5E
:101E88001B68002B02D0044B1B68984700BF80BD1D
:101E980000440040180100202401002080B500AF54
:101EA800144B1B689B0903F00103012B0CD1114B48
:101EB8001B68104A23F0400313600F4B1B68002B6C
:101EC80002D00D4B1B6898470A4B1B685B0903F04F
:101ED8000103012B0CD1074B1B68064A23F0200392
:101EE8001360064B1B68002B02D0044B1B689847F5
:101EF80000BF80BD001401401C0100202801002003
:101F080080B500AFFFF726FBFFF770FB00BF80BD71
:101F18000D4885460D480E490E4A002302E0D45864
:101F2800C4500433C4188C42F9D30B4A0B4C002319
:101F380001E013600432A242FBD300F01BF8FFF764
:101F4800DFFFFEF7C1FFFEE70000012000000020D0
:101F580024000020E41F0008240000203001002095
:101F6800FEE702440346934200D1704703F8011B81
:101F7800F9E7000070B50D4D0D4C641BA410002648
:101F8800A64209D10B4D0C4C00F018F8641BA410A4
:101F98000026A64205D170BD55F8043B9847013686
:101FA800EEE755F8043B98470136F2E7DC1F0008D6
:101FB800DC1F0008DC1F0008E01F0008F8B500BFA0
:101FC800F8BC08BC9E467047F8B500BFF8BC08BC12
:041FD8009E4670476A
:041FDC00BD0100083B
:041FE000990100085B
:101FE4000010014000840300000000000000000015
:101FF40000000000000000000000000000000000DD
:0420040000000000D8
:0400000508001F19B7
:00000001FF
